{
  "_format": "hh-sol-artifact-1",
  "contractName": "TelagentGroupRegistry",
  "sourceName": "contracts/TelagentGroupRegistry.sol",
  "abi": [
    {
      "inputs": [],
      "stateMutability": "nonpayable",
      "type": "constructor"
    },
    {
      "inputs": [],
      "name": "AccessControlBadConfirmation",
      "type": "error"
    },
    {
      "inputs": [
        {
          "internalType": "address",
          "name": "account",
          "type": "address"
        },
        {
          "internalType": "bytes32",
          "name": "neededRole",
          "type": "bytes32"
        }
      ],
      "name": "AccessControlUnauthorizedAccount",
      "type": "error"
    },
    {
      "inputs": [
        {
          "internalType": "address",
          "name": "target",
          "type": "address"
        }
      ],
      "name": "AddressEmptyCode",
      "type": "error"
    },
    {
      "inputs": [
        {
          "internalType": "bytes32",
          "name": "groupId",
          "type": "bytes32"
        }
      ],
      "name": "CannotRemoveOwner",
      "type": "error"
    },
    {
      "inputs": [
        {
          "internalType": "bytes32",
          "name": "didHash",
          "type": "bytes32"
        }
      ],
      "name": "DidNotActive",
      "type": "error"
    },
    {
      "inputs": [
        {
          "internalType": "address",
          "name": "implementation",
          "type": "address"
        }
      ],
      "name": "ERC1967InvalidImplementation",
      "type": "error"
    },
    {
      "inputs": [],
      "name": "ERC1967NonPayable",
      "type": "error"
    },
    {
      "inputs": [],
      "name": "EmptyDomain",
      "type": "error"
    },
    {
      "inputs": [],
      "name": "EnforcedPause",
      "type": "error"
    },
    {
      "inputs": [],
      "name": "ExpectedPause",
      "type": "error"
    },
    {
      "inputs": [],
      "name": "FailedCall",
      "type": "error"
    },
    {
      "inputs": [
        {
          "internalType": "bytes32",
          "name": "groupId",
          "type": "bytes32"
        }
      ],
      "name": "GroupAlreadyExists",
      "type": "error"
    },
    {
      "inputs": [
        {
          "internalType": "bytes32",
          "name": "groupId",
          "type": "bytes32"
        }
      ],
      "name": "GroupInactive",
      "type": "error"
    },
    {
      "inputs": [
        {
          "internalType": "bytes32",
          "name": "groupId",
          "type": "bytes32"
        }
      ],
      "name": "GroupNotFound",
      "type": "error"
    },
    {
      "inputs": [],
      "name": "InvalidHash",
      "type": "error"
    },
    {
      "inputs": [],
      "name": "InvalidInitialization",
      "type": "error"
    },
    {
      "inputs": [
        {
          "internalType": "bytes32",
          "name": "groupId",
          "type": "bytes32"
        },
        {
          "internalType": "bytes32",
          "name": "memberDidHash",
          "type": "bytes32"
        }
      ],
      "name": "InvalidMemberState",
      "type": "error"
    },
    {
      "inputs": [
        {
          "internalType": "bytes32",
          "name": "groupId",
          "type": "bytes32"
        },
        {
          "internalType": "bytes32",
          "name": "inviteId",
          "type": "bytes32"
        }
      ],
      "name": "InviteAlreadyAccepted",
      "type": "error"
    },
    {
      "inputs": [
        {
          "internalType": "bytes32",
          "name": "groupId",
          "type": "bytes32"
        },
        {
          "internalType": "bytes32",
          "name": "inviteId",
          "type": "bytes32"
        }
      ],
      "name": "InviteAlreadyExists",
      "type": "error"
    },
    {
      "inputs": [
        {
          "internalType": "bytes32",
          "name": "groupId",
          "type": "bytes32"
        },
        {
          "internalType": "bytes32",
          "name": "inviteId",
          "type": "bytes32"
        }
      ],
      "name": "InviteNotFound",
      "type": "error"
    },
    {
      "inputs": [
        {
          "internalType": "bytes32",
          "name": "expected",
          "type": "bytes32"
        },
        {
          "internalType": "bytes32",
          "name": "actual",
          "type": "bytes32"
        }
      ],
      "name": "InviteeMismatch",
      "type": "error"
    },
    {
      "inputs": [
        {
          "internalType": "bytes32",
          "name": "didHash",
          "type": "bytes32"
        },
        {
          "internalType": "address",
          "name": "caller",
          "type": "address"
        }
      ],
      "name": "NotDidController",
      "type": "error"
    },
    {
      "inputs": [
        {
          "internalType": "bytes32",
          "name": "groupId",
          "type": "bytes32"
        },
        {
          "internalType": "bytes32",
          "name": "operatorDidHash",
          "type": "bytes32"
        }
      ],
      "name": "NotGroupOwner",
      "type": "error"
    },
    {
      "inputs": [],
      "name": "NotInitializing",
      "type": "error"
    },
    {
      "inputs": [],
      "name": "UUPSUnauthorizedCallContext",
      "type": "error"
    },
    {
      "inputs": [
        {
          "internalType": "bytes32",
          "name": "slot",
          "type": "bytes32"
        }
      ],
      "name": "UUPSUnsupportedProxiableUUID",
      "type": "error"
    },
    {
      "inputs": [],
      "name": "ZeroAddress",
      "type": "error"
    },
    {
      "anonymous": false,
      "inputs": [
        {
          "indexed": true,
          "internalType": "bytes32",
          "name": "groupId",
          "type": "bytes32"
        },
        {
          "indexed": true,
          "internalType": "bytes32",
          "name": "creatorDidHash",
          "type": "bytes32"
        },
        {
          "indexed": true,
          "internalType": "bytes32",
          "name": "domainHash",
          "type": "bytes32"
        },
        {
          "indexed": false,
          "internalType": "bytes32",
          "name": "domainProofHash",
          "type": "bytes32"
        },
        {
          "indexed": false,
          "internalType": "uint256",
          "name": "blockNumber",
          "type": "uint256"
        }
      ],
      "name": "GroupCreated",
      "type": "event"
    },
    {
      "anonymous": false,
      "inputs": [
        {
          "indexed": false,
          "internalType": "uint64",
          "name": "version",
          "type": "uint64"
        }
      ],
      "name": "Initialized",
      "type": "event"
    },
    {
      "anonymous": false,
      "inputs": [
        {
          "indexed": true,
          "internalType": "bytes32",
          "name": "groupId",
          "type": "bytes32"
        },
        {
          "indexed": true,
          "internalType": "bytes32",
          "name": "inviteId",
          "type": "bytes32"
        },
        {
          "indexed": true,
          "internalType": "bytes32",
          "name": "memberDidHash",
          "type": "bytes32"
        },
        {
          "indexed": false,
          "internalType": "bytes32",
          "name": "mlsWelcomeHash",
          "type": "bytes32"
        }
      ],
      "name": "MemberAccepted",
      "type": "event"
    },
    {
      "anonymous": false,
      "inputs": [
        {
          "indexed": true,
          "internalType": "bytes32",
          "name": "groupId",
          "type": "bytes32"
        },
        {
          "indexed": true,
          "internalType": "bytes32",
          "name": "inviteId",
          "type": "bytes32"
        },
        {
          "indexed": true,
          "internalType": "bytes32",
          "name": "inviterDidHash",
          "type": "bytes32"
        },
        {
          "indexed": false,
          "internalType": "bytes32",
          "name": "inviteeDidHash",
          "type": "bytes32"
        },
        {
          "indexed": false,
          "internalType": "bytes32",
          "name": "mlsCommitHash",
          "type": "bytes32"
        }
      ],
      "name": "MemberInvited",
      "type": "event"
    },
    {
      "anonymous": false,
      "inputs": [
        {
          "indexed": true,
          "internalType": "bytes32",
          "name": "groupId",
          "type": "bytes32"
        },
        {
          "indexed": true,
          "internalType": "bytes32",
          "name": "memberDidHash",
          "type": "bytes32"
        },
        {
          "indexed": true,
          "internalType": "bytes32",
          "name": "operatorDidHash",
          "type": "bytes32"
        },
        {
          "indexed": false,
          "internalType": "bytes32",
          "name": "mlsCommitHash",
          "type": "bytes32"
        }
      ],
      "name": "MemberRemoved",
      "type": "event"
    },
    {
      "anonymous": false,
      "inputs": [
        {
          "indexed": false,
          "internalType": "address",
          "name": "account",
          "type": "address"
        }
      ],
      "name": "Paused",
      "type": "event"
    },
    {
      "anonymous": false,
      "inputs": [
        {
          "indexed": true,
          "internalType": "bytes32",
          "name": "role",
          "type": "bytes32"
        },
        {
          "indexed": true,
          "internalType": "bytes32",
          "name": "previousAdminRole",
          "type": "bytes32"
        },
        {
          "indexed": true,
          "internalType": "bytes32",
          "name": "newAdminRole",
          "type": "bytes32"
        }
      ],
      "name": "RoleAdminChanged",
      "type": "event"
    },
    {
      "anonymous": false,
      "inputs": [
        {
          "indexed": true,
          "internalType": "bytes32",
          "name": "role",
          "type": "bytes32"
        },
        {
          "indexed": true,
          "internalType": "address",
          "name": "account",
          "type": "address"
        },
        {
          "indexed": true,
          "internalType": "address",
          "name": "sender",
          "type": "address"
        }
      ],
      "name": "RoleGranted",
      "type": "event"
    },
    {
      "anonymous": false,
      "inputs": [
        {
          "indexed": true,
          "internalType": "bytes32",
          "name": "role",
          "type": "bytes32"
        },
        {
          "indexed": true,
          "internalType": "address",
          "name": "account",
          "type": "address"
        },
        {
          "indexed": true,
          "internalType": "address",
          "name": "sender",
          "type": "address"
        }
      ],
      "name": "RoleRevoked",
      "type": "event"
    },
    {
      "anonymous": false,
      "inputs": [
        {
          "indexed": false,
          "internalType": "address",
          "name": "account",
          "type": "address"
        }
      ],
      "name": "Unpaused",
      "type": "event"
    },
    {
      "anonymous": false,
      "inputs": [
        {
          "indexed": true,
          "internalType": "address",
          "name": "implementation",
          "type": "address"
        }
      ],
      "name": "Upgraded",
      "type": "event"
    },
    {
      "inputs": [],
      "name": "DEFAULT_ADMIN_ROLE",
      "outputs": [
        {
          "internalType": "bytes32",
          "name": "",
          "type": "bytes32"
        }
      ],
      "stateMutability": "view",
      "type": "function"
    },
    {
      "inputs": [],
      "name": "PAUSER_ROLE",
      "outputs": [
        {
          "internalType": "bytes32",
          "name": "",
          "type": "bytes32"
        }
      ],
      "stateMutability": "view",
      "type": "function"
    },
    {
      "inputs": [],
      "name": "UPGRADE_INTERFACE_VERSION",
      "outputs": [
        {
          "internalType": "string",
          "name": "",
          "type": "string"
        }
      ],
      "stateMutability": "view",
      "type": "function"
    },
    {
      "inputs": [
        {
          "internalType": "bytes32",
          "name": "groupId",
          "type": "bytes32"
        },
        {
          "internalType": "bytes32",
          "name": "inviteId",
          "type": "bytes32"
        },
        {
          "internalType": "bytes32",
          "name": "inviteeDidHash",
          "type": "bytes32"
        },
        {
          "internalType": "bytes32",
          "name": "mlsWelcomeHash",
          "type": "bytes32"
        }
      ],
      "name": "acceptInvite",
      "outputs": [],
      "stateMutability": "nonpayable",
      "type": "function"
    },
    {
      "inputs": [
        {
          "internalType": "bytes32",
          "name": "groupId",
          "type": "bytes32"
        },
        {
          "internalType": "bytes32",
          "name": "creatorDidHash",
          "type": "bytes32"
        },
        {
          "internalType": "string",
          "name": "groupDomain",
          "type": "string"
        },
        {
          "internalType": "bytes32",
          "name": "domainProofHash",
          "type": "bytes32"
        },
        {
          "internalType": "bytes32",
          "name": "initialMlsStateHash",
          "type": "bytes32"
        }
      ],
      "name": "createGroup",
      "outputs": [],
      "stateMutability": "nonpayable",
      "type": "function"
    },
    {
      "inputs": [
        {
          "internalType": "bytes32",
          "name": "groupId",
          "type": "bytes32"
        }
      ],
      "name": "getGroup",
      "outputs": [
        {
          "components": [
            {
              "internalType": "bytes32",
              "name": "creatorDidHash",
              "type": "bytes32"
            },
            {
              "internalType": "string",
              "name": "groupDomain",
              "type": "string"
            },
            {
              "internalType": "bytes32",
              "name": "domainProofHash",
              "type": "bytes32"
            },
            {
              "internalType": "bytes32",
              "name": "mlsStateHash",
              "type": "bytes32"
            },
            {
              "internalType": "uint64",
              "name": "createdAt",
              "type": "uint64"
            },
            {
              "internalType": "uint64",
              "name": "updatedAt",
              "type": "uint64"
            },
            {
              "internalType": "bool",
              "name": "active",
              "type": "bool"
            }
          ],
          "internalType": "struct TelagentGroupRegistry.GroupRecord",
          "name": "",
          "type": "tuple"
        }
      ],
      "stateMutability": "view",
      "type": "function"
    },
    {
      "inputs": [
        {
          "internalType": "bytes32",
          "name": "groupId",
          "type": "bytes32"
        },
        {
          "internalType": "bytes32",
          "name": "memberDidHash",
          "type": "bytes32"
        }
      ],
      "name": "getMemberState",
      "outputs": [
        {
          "internalType": "enum TelagentGroupRegistry.MembershipState",
          "name": "",
          "type": "uint8"
        }
      ],
      "stateMutability": "view",
      "type": "function"
    },
    {
      "inputs": [
        {
          "internalType": "bytes32",
          "name": "role",
          "type": "bytes32"
        }
      ],
      "name": "getRoleAdmin",
      "outputs": [
        {
          "internalType": "bytes32",
          "name": "",
          "type": "bytes32"
        }
      ],
      "stateMutability": "view",
      "type": "function"
    },
    {
      "inputs": [
        {
          "internalType": "bytes32",
          "name": "role",
          "type": "bytes32"
        },
        {
          "internalType": "address",
          "name": "account",
          "type": "address"
        }
      ],
      "name": "grantRole",
      "outputs": [],
      "stateMutability": "nonpayable",
      "type": "function"
    },
    {
      "inputs": [
        {
          "internalType": "bytes32",
          "name": "",
          "type": "bytes32"
        }
      ],
      "name": "groups",
      "outputs": [
        {
          "internalType": "bytes32",
          "name": "creatorDidHash",
          "type": "bytes32"
        },
        {
          "internalType": "string",
          "name": "groupDomain",
          "type": "string"
        },
        {
          "internalType": "bytes32",
          "name": "domainProofHash",
          "type": "bytes32"
        },
        {
          "internalType": "bytes32",
          "name": "mlsStateHash",
          "type": "bytes32"
        },
        {
          "internalType": "uint64",
          "name": "createdAt",
          "type": "uint64"
        },
        {
          "internalType": "uint64",
          "name": "updatedAt",
          "type": "uint64"
        },
        {
          "internalType": "bool",
          "name": "active",
          "type": "bool"
        }
      ],
      "stateMutability": "view",
      "type": "function"
    },
    {
      "inputs": [
        {
          "internalType": "bytes32",
          "name": "role",
          "type": "bytes32"
        },
        {
          "internalType": "address",
          "name": "account",
          "type": "address"
        }
      ],
      "name": "hasRole",
      "outputs": [
        {
          "internalType": "bool",
          "name": "",
          "type": "bool"
        }
      ],
      "stateMutability": "view",
      "type": "function"
    },
    {
      "inputs": [],
      "name": "identity",
      "outputs": [
        {
          "internalType": "contract IClawIdentity",
          "name": "",
          "type": "address"
        }
      ],
      "stateMutability": "view",
      "type": "function"
    },
    {
      "inputs": [
        {
          "internalType": "address",
          "name": "admin",
          "type": "address"
        },
        {
          "internalType": "address",
          "name": "identityAddress",
          "type": "address"
        }
      ],
      "name": "initialize",
      "outputs": [],
      "stateMutability": "nonpayable",
      "type": "function"
    },
    {
      "inputs": [
        {
          "internalType": "bytes32",
          "name": "groupId",
          "type": "bytes32"
        },
        {
          "internalType": "bytes32",
          "name": "inviteId",
          "type": "bytes32"
        },
        {
          "internalType": "bytes32",
          "name": "inviterDidHash",
          "type": "bytes32"
        },
        {
          "internalType": "bytes32",
          "name": "inviteeDidHash",
          "type": "bytes32"
        },
        {
          "internalType": "bytes32",
          "name": "mlsCommitHash",
          "type": "bytes32"
        }
      ],
      "name": "inviteMember",
      "outputs": [],
      "stateMutability": "nonpayable",
      "type": "function"
    },
    {
      "inputs": [
        {
          "internalType": "bytes32",
          "name": "",
          "type": "bytes32"
        },
        {
          "internalType": "bytes32",
          "name": "",
          "type": "bytes32"
        }
      ],
      "name": "invites",
      "outputs": [
        {
          "internalType": "bytes32",
          "name": "inviterDidHash",
          "type": "bytes32"
        },
        {
          "internalType": "bytes32",
          "name": "inviteeDidHash",
          "type": "bytes32"
        },
        {
          "internalType": "bool",
          "name": "exists",
          "type": "bool"
        },
        {
          "internalType": "bool",
          "name": "accepted",
          "type": "bool"
        }
      ],
      "stateMutability": "view",
      "type": "function"
    },
    {
      "inputs": [
        {
          "internalType": "bytes32",
          "name": "groupId",
          "type": "bytes32"
        },
        {
          "internalType": "bytes32",
          "name": "memberDidHash",
          "type": "bytes32"
        }
      ],
      "name": "isFinalizedMember",
      "outputs": [
        {
          "internalType": "bool",
          "name": "",
          "type": "bool"
        }
      ],
      "stateMutability": "view",
      "type": "function"
    },
    {
      "inputs": [
        {
          "internalType": "bytes32",
          "name": "",
          "type": "bytes32"
        },
        {
          "internalType": "bytes32",
          "name": "",
          "type": "bytes32"
        }
      ],
      "name": "members",
      "outputs": [
        {
          "internalType": "enum TelagentGroupRegistry.MembershipState",
          "name": "",
          "type": "uint8"
        }
      ],
      "stateMutability": "view",
      "type": "function"
    },
    {
      "inputs": [],
      "name": "pause",
      "outputs": [],
      "stateMutability": "nonpayable",
      "type": "function"
    },
    {
      "inputs": [],
      "name": "paused",
      "outputs": [
        {
          "internalType": "bool",
          "name": "",
          "type": "bool"
        }
      ],
      "stateMutability": "view",
      "type": "function"
    },
    {
      "inputs": [],
      "name": "proxiableUUID",
      "outputs": [
        {
          "internalType": "bytes32",
          "name": "",
          "type": "bytes32"
        }
      ],
      "stateMutability": "view",
      "type": "function"
    },
    {
      "inputs": [
        {
          "internalType": "bytes32",
          "name": "groupId",
          "type": "bytes32"
        },
        {
          "internalType": "bytes32",
          "name": "operatorDidHash",
          "type": "bytes32"
        },
        {
          "internalType": "bytes32",
          "name": "memberDidHash",
          "type": "bytes32"
        },
        {
          "internalType": "bytes32",
          "name": "mlsCommitHash",
          "type": "bytes32"
        }
      ],
      "name": "removeMember",
      "outputs": [],
      "stateMutability": "nonpayable",
      "type": "function"
    },
    {
      "inputs": [
        {
          "internalType": "bytes32",
          "name": "role",
          "type": "bytes32"
        },
        {
          "internalType": "address",
          "name": "callerConfirmation",
          "type": "address"
        }
      ],
      "name": "renounceRole",
      "outputs": [],
      "stateMutability": "nonpayable",
      "type": "function"
    },
    {
      "inputs": [
        {
          "internalType": "bytes32",
          "name": "role",
          "type": "bytes32"
        },
        {
          "internalType": "address",
          "name": "account",
          "type": "address"
        }
      ],
      "name": "revokeRole",
      "outputs": [],
      "stateMutability": "nonpayable",
      "type": "function"
    },
    {
      "inputs": [
        {
          "internalType": "bytes4",
          "name": "interfaceId",
          "type": "bytes4"
        }
      ],
      "name": "supportsInterface",
      "outputs": [
        {
          "internalType": "bool",
          "name": "",
          "type": "bool"
        }
      ],
      "stateMutability": "view",
      "type": "function"
    },
    {
      "inputs": [],
      "name": "unpause",
      "outputs": [],
      "stateMutability": "nonpayable",
      "type": "function"
    },
    {
      "inputs": [
        {
          "internalType": "address",
          "name": "newImplementation",
          "type": "address"
        },
        {
          "internalType": "bytes",
          "name": "data",
          "type": "bytes"
        }
      ],
      "name": "upgradeToAndCall",
      "outputs": [],
      "stateMutability": "payable",
      "type": "function"
    }
  ],
  "bytecode": "0x60a06040523060805234801561001457600080fd5b5061001d610022565b6100d4565b7ff0c57e16840df040f15088dc2f81fe391c3923bec73e23a9662efc9c229c6a00805468010000000000000000900460ff16156100725760405163f92ee8a960e01b815260040160405180910390fd5b80546001600160401b03908116146100d15780546001600160401b0319166001600160401b0390811782556040519081527fc7f505b2f371ae2175ee4913f4499e1f2633a7b5936321eed1cdaeb6115181d29060200160405180910390a15b50565b6080516122876100fd6000396000818161164c0152818161167501526117b901526122876000f3fe6080604052600436106101815760003560e01c806369a25c67116100d1578063a57d20931161008a578063d547741f11610064578063d547741f146104fd578063e4ee18fe1461051d578063e63ab1e91461053d578063ef161bcb1461055f57600080fd5b8063a57d209314610457578063ad3cb1cc14610492578063b567d4ba146104d057600080fd5b806369a25c67146103ad57806376eb4325146103cd5780637824fb3b146103ed5780638456cb591461040d57806391d1485414610422578063a217fddf1461044257600080fd5b80633f4ba83a1161013e57806352d1902d1161011857806352d1902d146102d85780635c975abb146102ed5780635fdf065e1461031257806363858aa21461033257600080fd5b80633f4ba83a14610290578063485cc955146102a55780634f1ef286146102c557600080fd5b806301ffc9a714610186578063134e1897146101bb578063248a9ca3146101e85780632c159a1a146102165780632f2ff15d1461024e57806336568abe14610270575b600080fd5b34801561019257600080fd5b506101a66101a1366004611c06565b610592565b60405190151581526020015b60405180910390f35b3480156101c757600080fd5b506101db6101d6366004611c37565b6105c9565b6040516101b29190611c6f565b3480156101f457600080fd5b50610208610203366004611c97565b610728565b6040519081526020016101b2565b34801561022257600080fd5b50600054610236906001600160a01b031681565b6040516001600160a01b0390911681526020016101b2565b34801561025a57600080fd5b5061026e610269366004611cc5565b61074a565b005b34801561027c57600080fd5b5061026e61028b366004611cc5565b61076c565b34801561029c57600080fd5b5061026e6107a4565b3480156102b157600080fd5b5061026e6102c0366004611cf5565b6107c7565b61026e6102d3366004611d39565b610944565b3480156102e457600080fd5b50610208610963565b3480156102f957600080fd5b506000805160206122328339815191525460ff166101a6565b34801561031e57600080fd5b506101a661032d366004611c37565b610980565b34801561033e57600080fd5b5061038561034d366004611c37565b600360209081526000928352604080842090915290825290208054600182015460029092015490919060ff8082169161010090041684565b60408051948552602085019390935290151591830191909152151560608201526080016101b2565b3480156103b957600080fd5b5061026e6103c8366004611e02565b6109b6565b3480156103d957600080fd5b5061026e6103e8366004611e34565b610bad565b3480156103f957600080fd5b5061026e610408366004611ec7565b610dc7565b34801561041957600080fd5b5061026e610fdc565b34801561042e57600080fd5b506101a661043d366004611cc5565b610ffc565b34801561044e57600080fd5b50610208600081565b34801561046357600080fd5b506101db610472366004611c37565b600260209081526000928352604080842090915290825290205460ff1681565b34801561049e57600080fd5b506104c3604051806040016040528060058152602001640352e302e360dc1b81525081565b6040516101b29190611f48565b3480156104dc57600080fd5b506104f06104eb366004611c97565b611034565b6040516101b29190611f5b565b34801561050957600080fd5b5061026e610518366004611cc5565b611198565b34801561052957600080fd5b5061026e610538366004611e02565b6111b4565b34801561054957600080fd5b506102086000805160206121f283398151915281565b34801561056b57600080fd5b5061057f61057a366004611c97565b6113a4565b6040516101b29796959493929190611fd4565b60006001600160e01b03198216637965db0b60e01b14806105c357506301ffc9a760e01b6001600160e01b03198316145b92915050565b600080600160008581526020019081526020016000206040518060e00160405290816000820154815260200160018201805461060490612023565b80601f016020809104026020016040519081016040528092919081815260200182805461063090612023565b801561067d5780601f106106525761010080835404028352916020019161067d565b820191906000526020600020905b81548152906001019060200180831161066057829003601f168201915b505050918352505060028201546020820152600382015460408201526004909101546001600160401b038082166060840152600160401b82048116608080850191909152600160801b90920460ff16151560a09093019290925282015191925016600003610706576040516337b0c22d60e21b8152600481018590526024015b60405180910390fd5b5050600091825260026020908152604080842092845291905290205460ff1690565b6000908152600080516020612212833981519152602052604090206001015490565b61075382610728565b61075c8161147c565b6107668383611486565b50505050565b6001600160a01b03811633146107955760405163334bd91960e11b815260040160405180910390fd5b61079f8282611532565b505050565b6000805160206121f28339815191526107bc8161147c565b6107c46115ae565b50565b60006107d161160e565b805490915060ff600160401b82041615906001600160401b03166000811580156107f85750825b90506000826001600160401b031660011480156108145750303b155b905081158015610822575080155b156108405760405163f92ee8a960e01b815260040160405180910390fd5b845467ffffffffffffffff19166001178555831561086a57845460ff60401b1916600160401b1785555b6001600160a01b038716158061088757506001600160a01b038616155b156108a55760405163d92e233d60e01b815260040160405180910390fd5b6108ad611637565b6108b5611637565b6108c0600088611486565b506108d96000805160206121f283398151915288611486565b50600080546001600160a01b0319166001600160a01b038816179055831561093b57845460ff60401b19168555604051600181527fc7f505b2f371ae2175ee4913f4499e1f2633a7b5936321eed1cdaeb6115181d29060200160405180910390a15b50505050505050565b61094c611641565b610955826116e6565b61095f82826116f1565b5050565b600061096d6117ae565b506000805160206121d283398151915290565b600082815260026020818152604080842085855290915282205460ff1660038111156109ae576109ae611c59565b149392505050565b6109be6117f7565b6000848152600160205260408120600481015490916001600160401b039091169003610a00576040516337b0c22d60e21b8152600481018690526024016106fd565b6004810154600160801b900460ff16610a2f5760405163c678d9b560e01b8152600481018690526024016106fd565b81610a4c576040516257c03760e51b815260040160405180910390fd5b60008581526003602090815260408083208784529091529020600281015460ff16610a94576040516312caa3ad60e01b815260048101879052602481018690526044016106fd565b6002810154610100900460ff1615610ac957604051632f328ebd60e21b815260048101879052602481018690526044016106fd565b83816001015414610afd5760018101546040516338f9760f60e21b81526004810191909152602481018590526044016106fd565b610b0684611828565b6002808201805461ff0019166101001790556000878152602082815260408083208884529091529020805460ff191660018302179055506003820183905560048201805467ffffffffffffffff60401b1916600160401b426001600160401b0316021790556040518381528490869088907fffd9d73300e94a3b5d44ae12a4f1896dede0b78babd96c4d95dddb33062f4ff5906020015b60405180910390a4505050505050565b610bb56117f7565b6000868152600160205260409020600401546001600160401b031615610bf15760405163d7fb0a8b60e01b8152600481018790526024016106fd565b6000839003610c1357604051634f89e19b60e11b815260040160405180910390fd5b811580610c1e575080155b15610c3b576040516257c03760e51b815260040160405180910390fd5b610c4485611828565b6040518060e0016040528086815260200185858080601f0160208091040260200160405190810160405280939291908181526020018383808284376000920182905250938552505050602080830186905260408084018690526001600160401b034216606085018190526080850152600160a09094018490528a835283825290912083518155908301519091820190610cdd90826120ab565b506040828101516002808401919091556060840151600384015560808401516004909301805460a086015160c0909601511515600160801b0260ff60801b196001600160401b03978816600160401b026fffffffffffffffffffffffffffffffff19909316979096169690961717939093169390931790915560008881526020838152828220898352905220805460ff191660018302179055508383604051610d87929190612169565b6040805191829003822084835243602084015291879189917fae5b6504ef785db849ad82c4bebe8d9e198b308f004fd84ff85f258b1a9a84459101610b9d565b610dcf6117f7565b6000858152600160205260408120600481015490916001600160401b039091169003610e11576040516337b0c22d60e21b8152600481018790526024016106fd565b6004810154600160801b900460ff16610e405760405163c678d9b560e01b8152600481018790526024016106fd565b81610e5d576040516257c03760e51b815260040160405180910390fd5b600086815260036020908152604080832088845290915290206002015460ff1615610ea857604051600162a212d360e01b0319815260048101879052602481018690526044016106fd565b610eb184611828565b80548414610edc5760405163519dedfd60e11b815260048101879052602481018590526044016106fd565b610ee5836118d3565b60408051608081018252858152602080820186815260018385018181526000606086018181528d8252600386528782208d8352865287822096518755935186840155905160029586018054945115156101000261ff00199215159290921661ffff1990951694909417179092558a825292825283812087825290915291909120805460ff1916828002179055506003810182905560048101805467ffffffffffffffff60401b1916600160401b426001600160401b03160217905560408051848152602081018490528591879189917f53cbb6a632fb670410d72986a2c42138ac0f8786df7f2b61ebf6b14618caeab19101610b9d565b6000805160206121f2833981519152610ff48161147c565b6107c4611964565b6000918252600080516020612212833981519152602090815260408084206001600160a01b0393909316845291905290205460ff1690565b6040805160e080820183526000808352606060208085018290528486018390529084018290526080840182905260a0840182905260c08401829052858252600180825285832086519485019096528554845285018054949592949184019161109b90612023565b80601f01602080910402602001604051908101604052809291908181526020018280546110c790612023565b80156111145780601f106110e957610100808354040283529160200191611114565b820191906000526020600020905b8154815290600101906020018083116110f757829003601f168201915b505050918352505060028201546020820152600382015460408201526004909101546001600160401b038082166060840152600160401b82048116608080850191909152600160801b90920460ff16151560a090930192909252820151919250166000036105c3576040516337b0c22d60e21b8152600481018490526024016106fd565b6111a182610728565b6111aa8161147c565b6107668383611532565b6111bc6117f7565b6000848152600160205260408120600481015490916001600160401b0390911690036111fe576040516337b0c22d60e21b8152600481018690526024016106fd565b6004810154600160801b900460ff1661122d5760405163c678d9b560e01b8152600481018690526024016106fd565b8161124a576040516257c03760e51b815260040160405180910390fd5b61125384611828565b8054841461127e5760405163519dedfd60e11b815260048101869052602481018590526044016106fd565b80548390036112a357604051634913e51d60e11b8152600481018690526024016106fd565b600085815260026020908152604080832086845290915290205460ff1660018160038111156112d4576112d4611c59565b141580156112f4575060028160038111156112f1576112f1611c59565b14155b1561131c5760405163d2b32a5f60e01b815260048101879052602481018590526044016106fd565b60008681526002602090815260408083208784528252918290208054600360ff199091168117909155840185905560048401805467ffffffffffffffff60401b1916600160401b426001600160401b03160217905590518481528691869189917f2fd570b64712d07a1a97099fc0f339a5da9afc9d53a2e0fcbb9ba4afa8854fb09101610b9d565b6001602081905260009182526040909120805491810180546113c590612023565b80601f01602080910402602001604051908101604052809291908181526020018280546113f190612023565b801561143e5780601f106114135761010080835404028352916020019161143e565b820191906000526020600020905b81548152906001019060200180831161142157829003601f168201915b50505060028401546003850154600490950154939490939092506001600160401b038082169250600160401b8204169060ff600160801b9091041687565b6107c481336119ad565b60006000805160206122128339815191526114a18484610ffc565b611521576000848152602082815260408083206001600160a01b03871684529091529020805460ff191660011790556114d73390565b6001600160a01b0316836001600160a01b0316857f2f8788117e7eff1d82e926ec794901d17c78024a50270940304540a733656f0d60405160405180910390a460019150506105c3565b60009150506105c3565b5092915050565b600060008051602061221283398151915261154d8484610ffc565b15611521576000848152602082815260408083206001600160a01b0387168085529252808320805460ff1916905551339287917ff6391f5c32d9c69d2a47ea670b442974b53935d1edc7fd64eb21e047a839171b9190a460019150506105c3565b6115b66119e6565b600080516020612232833981519152805460ff191681557f5db9ee0a495bf2e6ff9c91a7834c1ba4fdd244a5e8aa4e537bd38aeae4b073aa335b6040516001600160a01b03909116815260200160405180910390a150565b6000807ff0c57e16840df040f15088dc2f81fe391c3923bec73e23a9662efc9c229c6a006105c3565b61163f611a16565b565b306001600160a01b037f00000000000000000000000000000000000000000000000000000000000000001614806116c857507f00000000000000000000000000000000000000000000000000000000000000006001600160a01b03166116bc6000805160206121d2833981519152546001600160a01b031690565b6001600160a01b031614155b1561163f5760405163703e46dd60e11b815260040160405180910390fd5b600061095f8161147c565b816001600160a01b03166352d1902d6040518163ffffffff1660e01b8152600401602060405180830381865afa92505050801561174b575060408051601f3d908101601f1916820190925261174891810190612179565b60015b61177357604051634c9c8ce360e01b81526001600160a01b03831660048201526024016106fd565b6000805160206121d283398151915281146117a457604051632a87526960e21b8152600481018290526024016106fd565b61079f8383611a3b565b306001600160a01b037f0000000000000000000000000000000000000000000000000000000000000000161461163f5760405163703e46dd60e11b815260040160405180910390fd5b6000805160206122328339815191525460ff161561163f5760405163d93c066560e01b815260040160405180910390fd5b611831816118d3565b6000805460405163478c0ad960e11b8152600481018490526001600160a01b0390911690638f1815b290602401602060405180830381865afa15801561187b573d6000803e3d6000fd5b505050506040513d601f19601f8201168201806040525081019061189f9190612192565b90506001600160a01b038116331461095f5760405163fb68a6cd60e01b8152600481018390523360248201526044016106fd565b6000805460405163170da40760e21b8152600481018490526001600160a01b0390911690635c36901c90602401602060405180830381865afa15801561191d573d6000803e3d6000fd5b505050506040513d601f19601f8201168201806040525081019061194191906121af565b90508061095f576040516394d205af60e01b8152600481018390526024016106fd565b61196c6117f7565b600080516020612232833981519152805460ff191660011781557f62e78cea01bee320cd4e420270b5ea74000d11b0c9f74754ebdbfc544b05a258336115f0565b6119b78282610ffc565b61095f5760405163e2517d3f60e01b81526001600160a01b0382166004820152602481018390526044016106fd565b6000805160206122328339815191525460ff1661163f57604051638dfc202b60e01b815260040160405180910390fd5b611a1e611a91565b61163f57604051631afcd79f60e31b815260040160405180910390fd5b611a4482611aab565b6040516001600160a01b038316907fbc7cd75a20ee27fd9adebab32041f755214dbc6bffa90cc0225b39da2e5c2d3b90600090a2805115611a895761079f8282611b10565b61095f611bac565b6000611a9b61160e565b54600160401b900460ff16919050565b806001600160a01b03163b600003611ae157604051634c9c8ce360e01b81526001600160a01b03821660048201526024016106fd565b6000805160206121d283398151915280546001600160a01b0319166001600160a01b0392909216919091179055565b60606000611b1e8484611bcb565b9050808015611b41575060003d1180611b4157506000846001600160a01b03163b115b15611b5657611b4e611be0565b9150506105c3565b8015611b8057604051639996b31560e01b81526001600160a01b03851660048201526024016106fd565b3d15611b9357611b8e611bfa565b61152b565b60405163d6bda27560e01b815260040160405180910390fd5b341561163f5760405163b398979f60e01b815260040160405180910390fd5b6000806000835160208501865af49392505050565b6040513d81523d6000602083013e3d602001810160405290565b6040513d6000823e3d81fd5b600060208284031215611c1857600080fd5b81356001600160e01b031981168114611c3057600080fd5b9392505050565b60008060408385031215611c4a57600080fd5b50508035926020909101359150565b634e487b7160e01b600052602160045260246000fd5b6020810160048310611c9157634e487b7160e01b600052602160045260246000fd5b91905290565b600060208284031215611ca957600080fd5b5035919050565b6001600160a01b03811681146107c457600080fd5b60008060408385031215611cd857600080fd5b823591506020830135611cea81611cb0565b809150509250929050565b60008060408385031215611d0857600080fd5b8235611d1381611cb0565b91506020830135611cea81611cb0565b634e487b7160e01b600052604160045260246000fd5b60008060408385031215611d4c57600080fd5b8235611d5781611cb0565b915060208301356001600160401b03811115611d7257600080fd5b8301601f81018513611d8357600080fd5b80356001600160401b03811115611d9c57611d9c611d23565b604051601f8201601f19908116603f011681016001600160401b0381118282101715611dca57611dca611d23565b604052818152828201602001871015611de257600080fd5b816020840160208301376000602083830101528093505050509250929050565b60008060008060808587031215611e1857600080fd5b5050823594602084013594506040840135936060013592509050565b60008060008060008060a08789031215611e4d57600080fd5b863595506020870135945060408701356001600160401b03811115611e7157600080fd5b8701601f81018913611e8257600080fd5b80356001600160401b03811115611e9857600080fd5b896020828401011115611eaa57600080fd5b969995985060200196606081013595608090910135945092505050565b600080600080600060a08688031215611edf57600080fd5b505083359560208501359550604085013594606081013594506080013592509050565b6000815180845260005b81811015611f2857602081850181015186830182015201611f0c565b506000602082860101526020601f19601f83011685010191505092915050565b602081526000611c306020830184611f02565b60208152815160208201526000602083015160e06040840152611f82610100840182611f02565b905060408401516060840152606084015160808401526001600160401b0360808501511660a08401526001600160401b0360a08501511660c084015260c0840151151560e08401528091505092915050565b87815260e060208201526000611fed60e0830189611f02565b60408301979097525060608101949094526001600160401b039283166080850152911660a0830152151560c09091015292915050565b600181811c9082168061203757607f821691505b60208210810361205757634e487b7160e01b600052602260045260246000fd5b50919050565b601f82111561079f57806000526020600020601f840160051c810160208510156120845750805b601f840160051c820191505b818110156120a45760008155600101612090565b5050505050565b81516001600160401b038111156120c4576120c4611d23565b6120d8816120d28454612023565b8461205d565b6020601f82116001811461210c57600083156120f45750848201515b600019600385901b1c1916600184901b1784556120a4565b600084815260208120601f198516915b8281101561213c578785015182556020948501946001909201910161211c565b508482101561215a5786840151600019600387901b60f8161c191681555b50505050600190811b01905550565b8183823760009101908152919050565b60006020828403121561218b57600080fd5b5051919050565b6000602082840312156121a457600080fd5b8151611c3081611cb0565b6000602082840312156121c157600080fd5b81518015158114611c3057600080fdfe360894a13ba1a3210667c828492db98dca3e2076cc3735a920a3ca505d382bbc65d7a28e3265b37a6474929f336521b332c1681b933f6cb9f3376673440d862a02dd7bc7dec4dceedda775e58dd541e08a116c6c53815c0bd028192f7b626800cd5ed15c6e187e77e9aee88184c21f4f2182ab5827cb3b7e07fbedcd63f03300a2646970667358221220f78e7c5c4508a746c596d40646f2ab5623bf28e0f14d4536f99e5097be9454ce64736f6c634300081c0033",
  "linkReferences": {},
  "deployedLinkReferences": {}
}