{"contracts/TelagentGroupRegistry.sol":{"TelagentGroupRegistry":{"abi":[{"inputs":[],"stateMutability":"nonpayable","type":"constructor"},{"inputs":[],"name":"AccessControlBadConfirmation","type":"error"},{"inputs":[{"internalType":"address","name":"account","type":"address"},{"internalType":"bytes32","name":"neededRole","type":"bytes32"}],"name":"AccessControlUnauthorizedAccount","type":"error"},{"inputs":[{"internalType":"address","name":"target","type":"address"}],"name":"AddressEmptyCode","type":"error"},{"inputs":[{"internalType":"bytes32","name":"groupId","type":"bytes32"}],"name":"CannotRemoveOwner","type":"error"},{"inputs":[{"internalType":"bytes32","name":"didHash","type":"bytes32"}],"name":"DidNotActive","type":"error"},{"inputs":[{"internalType":"address","name":"implementation","type":"address"}],"name":"ERC1967InvalidImplementation","type":"error"},{"inputs":[],"name":"ERC1967NonPayable","type":"error"},{"inputs":[],"name":"EmptyDomain","type":"error"},{"inputs":[],"name":"EnforcedPause","type":"error"},{"inputs":[],"name":"ExpectedPause","type":"error"},{"inputs":[],"name":"FailedCall","type":"error"},{"inputs":[{"internalType":"bytes32","name":"groupId","type":"bytes32"}],"name":"GroupAlreadyExists","type":"error"},{"inputs":[{"internalType":"bytes32","name":"groupId","type":"bytes32"}],"name":"GroupInactive","type":"error"},{"inputs":[{"internalType":"bytes32","name":"groupId","type":"bytes32"}],"name":"GroupNotFound","type":"error"},{"inputs":[],"name":"InvalidHash","type":"error"},{"inputs":[],"name":"InvalidInitialization","type":"error"},{"inputs":[{"internalType":"bytes32","name":"groupId","type":"bytes32"},{"internalType":"bytes32","name":"memberDidHash","type":"bytes32"}],"name":"InvalidMemberState","type":"error"},{"inputs":[{"internalType":"bytes32","name":"groupId","type":"bytes32"},{"internalType":"bytes32","name":"inviteId","type":"bytes32"}],"name":"InviteAlreadyAccepted","type":"error"},{"inputs":[{"internalType":"bytes32","name":"groupId","type":"bytes32"},{"internalType":"bytes32","name":"inviteId","type":"bytes32"}],"name":"InviteAlreadyExists","type":"error"},{"inputs":[{"internalType":"bytes32","name":"groupId","type":"bytes32"},{"internalType":"bytes32","name":"inviteId","type":"bytes32"}],"name":"InviteNotFound","type":"error"},{"inputs":[{"internalType":"bytes32","name":"expected","type":"bytes32"},{"internalType":"bytes32","name":"actual","type":"bytes32"}],"name":"InviteeMismatch","type":"error"},{"inputs":[{"internalType":"bytes32","name":"didHash","type":"bytes32"},{"internalType":"address","name":"caller","type":"address"}],"name":"NotDidController","type":"error"},{"inputs":[{"internalType":"bytes32","name":"groupId","type":"bytes32"},{"internalType":"bytes32","name":"operatorDidHash","type":"bytes32"}],"name":"NotGroupOwner","type":"error"},{"inputs":[],"name":"NotInitializing","type":"error"},{"inputs":[],"name":"UUPSUnauthorizedCallContext","type":"error"},{"inputs":[{"internalType":"bytes32","name":"slot","type":"bytes32"}],"name":"UUPSUnsupportedProxiableUUID","type":"error"},{"inputs":[],"name":"ZeroAddress","type":"error"},{"anonymous":false,"inputs":[{"indexed":true,"internalType":"bytes32","name":"groupId","type":"bytes32"},{"indexed":true,"internalType":"bytes32","name":"creatorDidHash","type":"bytes32"},{"indexed":true,"internalType":"bytes32","name":"domainHash","type":"bytes32"},{"indexed":false,"internalType":"bytes32","name":"domainProofHash","type":"bytes32"},{"indexed":false,"internalType":"uint256","name":"blockNumber","type":"uint256"}],"name":"GroupCreated","type":"event"},{"anonymous":false,"inputs":[{"indexed":false,"internalType":"uint64","name":"version","type":"uint64"}],"name":"Initialized","type":"event"},{"anonymous":false,"inputs":[{"indexed":true,"internalType":"bytes32","name":"groupId","type":"bytes32"},{"indexed":true,"internalType":"bytes32","name":"inviteId","type":"bytes32"},{"indexed":true,"internalType":"bytes32","name":"memberDidHash","type":"bytes32"},{"indexed":false,"internalType":"bytes32","name":"mlsWelcomeHash","type":"bytes32"}],"name":"MemberAccepted","type":"event"},{"anonymous":false,"inputs":[{"indexed":true,"internalType":"bytes32","name":"groupId","type":"bytes32"},{"indexed":true,"internalType":"bytes32","name":"inviteId","type":"bytes32"},{"indexed":true,"internalType":"bytes32","name":"inviterDidHash","type":"bytes32"},{"indexed":false,"internalType":"bytes32","name":"inviteeDidHash","type":"bytes32"},{"indexed":false,"internalType":"bytes32","name":"mlsCommitHash","type":"bytes32"}],"name":"MemberInvited","type":"event"},{"anonymous":false,"inputs":[{"indexed":true,"internalType":"bytes32","name":"groupId","type":"bytes32"},{"indexed":true,"internalType":"bytes32","name":"memberDidHash","type":"bytes32"},{"indexed":true,"internalType":"bytes32","name":"operatorDidHash","type":"bytes32"},{"indexed":false,"internalType":"bytes32","name":"mlsCommitHash","type":"bytes32"}],"name":"MemberRemoved","type":"event"},{"anonymous":false,"inputs":[{"indexed":false,"internalType":"address","name":"account","type":"address"}],"name":"Paused","type":"event"},{"anonymous":false,"inputs":[{"indexed":true,"internalType":"bytes32","name":"role","type":"bytes32"},{"indexed":true,"internalType":"bytes32","name":"previousAdminRole","type":"bytes32"},{"indexed":true,"internalType":"bytes32","name":"newAdminRole","type":"bytes32"}],"name":"RoleAdminChanged","type":"event"},{"anonymous":false,"inputs":[{"indexed":true,"internalType":"bytes32","name":"role","type":"bytes32"},{"indexed":true,"internalType":"address","name":"account","type":"address"},{"indexed":true,"internalType":"address","name":"sender","type":"address"}],"name":"RoleGranted","type":"event"},{"anonymous":false,"inputs":[{"indexed":true,"internalType":"bytes32","name":"role","type":"bytes32"},{"indexed":true,"internalType":"address","name":"account","type":"address"},{"indexed":true,"internalType":"address","name":"sender","type":"address"}],"name":"RoleRevoked","type":"event"},{"anonymous":false,"inputs":[{"indexed":false,"internalType":"address","name":"account","type":"address"}],"name":"Unpaused","type":"event"},{"anonymous":false,"inputs":[{"indexed":true,"internalType":"address","name":"implementation","type":"address"}],"name":"Upgraded","type":"event"},{"inputs":[],"name":"DEFAULT_ADMIN_ROLE","outputs":[{"internalType":"bytes32","name":"","type":"bytes32"}],"stateMutability":"view","type":"function"},{"inputs":[],"name":"PAUSER_ROLE","outputs":[{"internalType":"bytes32","name":"","type":"bytes32"}],"stateMutability":"view","type":"function"},{"inputs":[],"name":"UPGRADE_INTERFACE_VERSION","outputs":[{"internalType":"string","name":"","type":"string"}],"stateMutability":"view","type":"function"},{"inputs":[{"internalType":"bytes32","name":"groupId","type":"bytes32"},{"internalType":"bytes32","name":"inviteId","type":"bytes32"},{"internalType":"bytes32","name":"inviteeDidHash","type":"bytes32"},{"internalType":"bytes32","name":"mlsWelcomeHash","type":"bytes32"}],"name":"acceptInvite","outputs":[],"stateMutability":"nonpayable","type":"function"},{"inputs":[{"internalType":"bytes32","name":"groupId","type":"bytes32"},{"internalType":"bytes32","name":"creatorDidHash","type":"bytes32"},{"internalType":"string","name":"groupDomain","type":"string"},{"internalType":"bytes32","name":"domainProofHash","type":"bytes32"},{"internalType":"bytes32","name":"initialMlsStateHash","type":"bytes32"}],"name":"createGroup","outputs":[],"stateMutability":"nonpayable","type":"function"},{"inputs":[{"internalType":"bytes32","name":"groupId","type":"bytes32"}],"name":"getGroup","outputs":[{"components":[{"internalType":"bytes32","name":"creatorDidHash","type":"bytes32"},{"internalType":"string","name":"groupDomain","type":"string"},{"internalType":"bytes32","name":"domainProofHash","type":"bytes32"},{"internalType":"bytes32","name":"mlsStateHash","type":"bytes32"},{"internalType":"uint64","name":"createdAt","type":"uint64"},{"internalType":"uint64","name":"updatedAt","type":"uint64"},{"internalType":"bool","name":"active","type":"bool"}],"internalType":"struct TelagentGroupRegistry.GroupRecord","name":"","type":"tuple"}],"stateMutability":"view","type":"function"},{"inputs":[{"internalType":"bytes32","name":"groupId","type":"bytes32"},{"internalType":"bytes32","name":"memberDidHash","type":"bytes32"}],"name":"getMemberState","outputs":[{"internalType":"enum TelagentGroupRegistry.MembershipState","name":"","type":"uint8"}],"stateMutability":"view","type":"function"},{"inputs":[{"internalType":"bytes32","name":"role","type":"bytes32"}],"name":"getRoleAdmin","outputs":[{"internalType":"bytes32","name":"","type":"bytes32"}],"stateMutability":"view","type":"function"},{"inputs":[{"internalType":"bytes32","name":"role","type":"bytes32"},{"internalType":"address","name":"account","type":"address"}],"name":"grantRole","outputs":[],"stateMutability":"nonpayable","type":"function"},{"inputs":[{"internalType":"bytes32","name":"","type":"bytes32"}],"name":"groups","outputs":[{"internalType":"bytes32","name":"creatorDidHash","type":"bytes32"},{"internalType":"string","name":"groupDomain","type":"string"},{"internalType":"bytes32","name":"domainProofHash","type":"bytes32"},{"internalType":"bytes32","name":"mlsStateHash","type":"bytes32"},{"internalType":"uint64","name":"createdAt","type":"uint64"},{"internalType":"uint64","name":"updatedAt","type":"uint64"},{"internalType":"bool","name":"active","type":"bool"}],"stateMutability":"view","type":"function"},{"inputs":[{"internalType":"bytes32","name":"role","type":"bytes32"},{"internalType":"address","name":"account","type":"address"}],"name":"hasRole","outputs":[{"internalType":"bool","name":"","type":"bool"}],"stateMutability":"view","type":"function"},{"inputs":[],"name":"identity","outputs":[{"internalType":"contract IClawIdentity","name":"","type":"address"}],"stateMutability":"view","type":"function"},{"inputs":[{"internalType":"address","name":"admin","type":"address"},{"internalType":"address","name":"identityAddress","type":"address"}],"name":"initialize","outputs":[],"stateMutability":"nonpayable","type":"function"},{"inputs":[{"internalType":"bytes32","name":"groupId","type":"bytes32"},{"internalType":"bytes32","name":"inviteId","type":"bytes32"},{"internalType":"bytes32","name":"inviterDidHash","type":"bytes32"},{"internalType":"bytes32","name":"inviteeDidHash","type":"bytes32"},{"internalType":"bytes32","name":"mlsCommitHash","type":"bytes32"}],"name":"inviteMember","outputs":[],"stateMutability":"nonpayable","type":"function"},{"inputs":[{"internalType":"bytes32","name":"","type":"bytes32"},{"internalType":"bytes32","name":"","type":"bytes32"}],"name":"invites","outputs":[{"internalType":"bytes32","name":"inviterDidHash","type":"bytes32"},{"internalType":"bytes32","name":"inviteeDidHash","type":"bytes32"},{"internalType":"bool","name":"exists","type":"bool"},{"internalType":"bool","name":"accepted","type":"bool"}],"stateMutability":"view","type":"function"},{"inputs":[{"internalType":"bytes32","name":"groupId","type":"bytes32"},{"internalType":"bytes32","name":"memberDidHash","type":"bytes32"}],"name":"isFinalizedMember","outputs":[{"internalType":"bool","name":"","type":"bool"}],"stateMutability":"view","type":"function"},{"inputs":[{"internalType":"bytes32","name":"","type":"bytes32"},{"internalType":"bytes32","name":"","type":"bytes32"}],"name":"members","outputs":[{"internalType":"enum TelagentGroupRegistry.MembershipState","name":"","type":"uint8"}],"stateMutability":"view","type":"function"},{"inputs":[],"name":"pause","outputs":[],"stateMutability":"nonpayable","type":"function"},{"inputs":[],"name":"paused","outputs":[{"internalType":"bool","name":"","type":"bool"}],"stateMutability":"view","type":"function"},{"inputs":[],"name":"proxiableUUID","outputs":[{"internalType":"bytes32","name":"","type":"bytes32"}],"stateMutability":"view","type":"function"},{"inputs":[{"internalType":"bytes32","name":"groupId","type":"bytes32"},{"internalType":"bytes32","name":"operatorDidHash","type":"bytes32"},{"internalType":"bytes32","name":"memberDidHash","type":"bytes32"},{"internalType":"bytes32","name":"mlsCommitHash","type":"bytes32"}],"name":"removeMember","outputs":[],"stateMutability":"nonpayable","type":"function"},{"inputs":[{"internalType":"bytes32","name":"role","type":"bytes32"},{"internalType":"address","name":"callerConfirmation","type":"address"}],"name":"renounceRole","outputs":[],"stateMutability":"nonpayable","type":"function"},{"inputs":[{"internalType":"bytes32","name":"role","type":"bytes32"},{"internalType":"address","name":"account","type":"address"}],"name":"revokeRole","outputs":[],"stateMutability":"nonpayable","type":"function"},{"inputs":[{"internalType":"bytes4","name":"interfaceId","type":"bytes4"}],"name":"supportsInterface","outputs":[{"internalType":"bool","name":"","type":"bool"}],"stateMutability":"view","type":"function"},{"inputs":[],"name":"unpause","outputs":[],"stateMutability":"nonpayable","type":"function"},{"inputs":[{"internalType":"address","name":"newImplementation","type":"address"},{"internalType":"bytes","name":"data","type":"bytes"}],"name":"upgradeToAndCall","outputs":[],"stateMutability":"payable","type":"function"}],"evm":{"bytecode":{"linkReferences":{},"object":"60a06040523060805234801561001457600080fd5b5061001d610022565b6100d4565b7ff0c57e16840df040f15088dc2f81fe391c3923bec73e23a9662efc9c229c6a00805468010000000000000000900460ff16156100725760405163f92ee8a960e01b815260040160405180910390fd5b80546001600160401b03908116146100d15780546001600160401b0319166001600160401b0390811782556040519081527fc7f505b2f371ae2175ee4913f4499e1f2633a7b5936321eed1cdaeb6115181d29060200160405180910390a15b50565b6080516122876100fd6000396000818161164c0152818161167501526117b901526122876000f3fe6080604052600436106101815760003560e01c806369a25c67116100d1578063a57d20931161008a578063d547741f11610064578063d547741f146104fd578063e4ee18fe1461051d578063e63ab1e91461053d578063ef161bcb1461055f57600080fd5b8063a57d209314610457578063ad3cb1cc14610492578063b567d4ba146104d057600080fd5b806369a25c67146103ad57806376eb4325146103cd5780637824fb3b146103ed5780638456cb591461040d57806391d1485414610422578063a217fddf1461044257600080fd5b80633f4ba83a1161013e57806352d1902d1161011857806352d1902d146102d85780635c975abb146102ed5780635fdf065e1461031257806363858aa21461033257600080fd5b80633f4ba83a14610290578063485cc955146102a55780634f1ef286146102c557600080fd5b806301ffc9a714610186578063134e1897146101bb578063248a9ca3146101e85780632c159a1a146102165780632f2ff15d1461024e57806336568abe14610270575b600080fd5b34801561019257600080fd5b506101a66101a1366004611c06565b610592565b60405190151581526020015b60405180910390f35b3480156101c757600080fd5b506101db6101d6366004611c37565b6105c9565b6040516101b29190611c6f565b3480156101f457600080fd5b50610208610203366004611c97565b610728565b6040519081526020016101b2565b34801561022257600080fd5b50600054610236906001600160a01b031681565b6040516001600160a01b0390911681526020016101b2565b34801561025a57600080fd5b5061026e610269366004611cc5565b61074a565b005b34801561027c57600080fd5b5061026e61028b366004611cc5565b61076c565b34801561029c57600080fd5b5061026e6107a4565b3480156102b157600080fd5b5061026e6102c0366004611cf5565b6107c7565b61026e6102d3366004611d39565b610944565b3480156102e457600080fd5b50610208610963565b3480156102f957600080fd5b506000805160206122328339815191525460ff166101a6565b34801561031e57600080fd5b506101a661032d366004611c37565b610980565b34801561033e57600080fd5b5061038561034d366004611c37565b600360209081526000928352604080842090915290825290208054600182015460029092015490919060ff8082169161010090041684565b60408051948552602085019390935290151591830191909152151560608201526080016101b2565b3480156103b957600080fd5b5061026e6103c8366004611e02565b6109b6565b3480156103d957600080fd5b5061026e6103e8366004611e34565b610bad565b3480156103f957600080fd5b5061026e610408366004611ec7565b610dc7565b34801561041957600080fd5b5061026e610fdc565b34801561042e57600080fd5b506101a661043d366004611cc5565b610ffc565b34801561044e57600080fd5b50610208600081565b34801561046357600080fd5b506101db610472366004611c37565b600260209081526000928352604080842090915290825290205460ff1681565b34801561049e57600080fd5b506104c3604051806040016040528060058152602001640352e302e360dc1b81525081565b6040516101b29190611f48565b3480156104dc57600080fd5b506104f06104eb366004611c97565b611034565b6040516101b29190611f5b565b34801561050957600080fd5b5061026e610518366004611cc5565b611198565b34801561052957600080fd5b5061026e610538366004611e02565b6111b4565b34801561054957600080fd5b506102086000805160206121f283398151915281565b34801561056b57600080fd5b5061057f61057a366004611c97565b6113a4565b6040516101b29796959493929190611fd4565b60006001600160e01b03198216637965db0b60e01b14806105c357506301ffc9a760e01b6001600160e01b03198316145b92915050565b600080600160008581526020019081526020016000206040518060e00160405290816000820154815260200160018201805461060490612023565b80601f016020809104026020016040519081016040528092919081815260200182805461063090612023565b801561067d5780601f106106525761010080835404028352916020019161067d565b820191906000526020600020905b81548152906001019060200180831161066057829003601f168201915b505050918352505060028201546020820152600382015460408201526004909101546001600160401b038082166060840152600160401b82048116608080850191909152600160801b90920460ff16151560a09093019290925282015191925016600003610706576040516337b0c22d60e21b8152600481018590526024015b60405180910390fd5b5050600091825260026020908152604080842092845291905290205460ff1690565b6000908152600080516020612212833981519152602052604090206001015490565b61075382610728565b61075c8161147c565b6107668383611486565b50505050565b6001600160a01b03811633146107955760405163334bd91960e11b815260040160405180910390fd5b61079f8282611532565b505050565b6000805160206121f28339815191526107bc8161147c565b6107c46115ae565b50565b60006107d161160e565b805490915060ff600160401b82041615906001600160401b03166000811580156107f85750825b90506000826001600160401b031660011480156108145750303b155b905081158015610822575080155b156108405760405163f92ee8a960e01b815260040160405180910390fd5b845467ffffffffffffffff19166001178555831561086a57845460ff60401b1916600160401b1785555b6001600160a01b038716158061088757506001600160a01b038616155b156108a55760405163d92e233d60e01b815260040160405180910390fd5b6108ad611637565b6108b5611637565b6108c0600088611486565b506108d96000805160206121f283398151915288611486565b50600080546001600160a01b0319166001600160a01b038816179055831561093b57845460ff60401b19168555604051600181527fc7f505b2f371ae2175ee4913f4499e1f2633a7b5936321eed1cdaeb6115181d29060200160405180910390a15b50505050505050565b61094c611641565b610955826116e6565b61095f82826116f1565b5050565b600061096d6117ae565b506000805160206121d283398151915290565b600082815260026020818152604080842085855290915282205460ff1660038111156109ae576109ae611c59565b149392505050565b6109be6117f7565b6000848152600160205260408120600481015490916001600160401b039091169003610a00576040516337b0c22d60e21b8152600481018690526024016106fd565b6004810154600160801b900460ff16610a2f5760405163c678d9b560e01b8152600481018690526024016106fd565b81610a4c576040516257c03760e51b815260040160405180910390fd5b60008581526003602090815260408083208784529091529020600281015460ff16610a94576040516312caa3ad60e01b815260048101879052602481018690526044016106fd565b6002810154610100900460ff1615610ac957604051632f328ebd60e21b815260048101879052602481018690526044016106fd565b83816001015414610afd5760018101546040516338f9760f60e21b81526004810191909152602481018590526044016106fd565b610b0684611828565b6002808201805461ff0019166101001790556000878152602082815260408083208884529091529020805460ff191660018302179055506003820183905560048201805467ffffffffffffffff60401b1916600160401b426001600160401b0316021790556040518381528490869088907fffd9d73300e94a3b5d44ae12a4f1896dede0b78babd96c4d95dddb33062f4ff5906020015b60405180910390a4505050505050565b610bb56117f7565b6000868152600160205260409020600401546001600160401b031615610bf15760405163d7fb0a8b60e01b8152600481018790526024016106fd565b6000839003610c1357604051634f89e19b60e11b815260040160405180910390fd5b811580610c1e575080155b15610c3b576040516257c03760e51b815260040160405180910390fd5b610c4485611828565b6040518060e0016040528086815260200185858080601f0160208091040260200160405190810160405280939291908181526020018383808284376000920182905250938552505050602080830186905260408084018690526001600160401b034216606085018190526080850152600160a09094018490528a835283825290912083518155908301519091820190610cdd90826120ab565b506040828101516002808401919091556060840151600384015560808401516004909301805460a086015160c0909601511515600160801b0260ff60801b196001600160401b03978816600160401b026fffffffffffffffffffffffffffffffff19909316979096169690961717939093169390931790915560008881526020838152828220898352905220805460ff191660018302179055508383604051610d87929190612169565b6040805191829003822084835243602084015291879189917fae5b6504ef785db849ad82c4bebe8d9e198b308f004fd84ff85f258b1a9a84459101610b9d565b610dcf6117f7565b6000858152600160205260408120600481015490916001600160401b039091169003610e11576040516337b0c22d60e21b8152600481018790526024016106fd565b6004810154600160801b900460ff16610e405760405163c678d9b560e01b8152600481018790526024016106fd565b81610e5d576040516257c03760e51b815260040160405180910390fd5b600086815260036020908152604080832088845290915290206002015460ff1615610ea857604051600162a212d360e01b0319815260048101879052602481018690526044016106fd565b610eb184611828565b80548414610edc5760405163519dedfd60e11b815260048101879052602481018590526044016106fd565b610ee5836118d3565b60408051608081018252858152602080820186815260018385018181526000606086018181528d8252600386528782208d8352865287822096518755935186840155905160029586018054945115156101000261ff00199215159290921661ffff1990951694909417179092558a825292825283812087825290915291909120805460ff1916828002179055506003810182905560048101805467ffffffffffffffff60401b1916600160401b426001600160401b03160217905560408051848152602081018490528591879189917f53cbb6a632fb670410d72986a2c42138ac0f8786df7f2b61ebf6b14618caeab19101610b9d565b6000805160206121f2833981519152610ff48161147c565b6107c4611964565b6000918252600080516020612212833981519152602090815260408084206001600160a01b0393909316845291905290205460ff1690565b6040805160e080820183526000808352606060208085018290528486018390529084018290526080840182905260a0840182905260c08401829052858252600180825285832086519485019096528554845285018054949592949184019161109b90612023565b80601f01602080910402602001604051908101604052809291908181526020018280546110c790612023565b80156111145780601f106110e957610100808354040283529160200191611114565b820191906000526020600020905b8154815290600101906020018083116110f757829003601f168201915b505050918352505060028201546020820152600382015460408201526004909101546001600160401b038082166060840152600160401b82048116608080850191909152600160801b90920460ff16151560a090930192909252820151919250166000036105c3576040516337b0c22d60e21b8152600481018490526024016106fd565b6111a182610728565b6111aa8161147c565b6107668383611532565b6111bc6117f7565b6000848152600160205260408120600481015490916001600160401b0390911690036111fe576040516337b0c22d60e21b8152600481018690526024016106fd565b6004810154600160801b900460ff1661122d5760405163c678d9b560e01b8152600481018690526024016106fd565b8161124a576040516257c03760e51b815260040160405180910390fd5b61125384611828565b8054841461127e5760405163519dedfd60e11b815260048101869052602481018590526044016106fd565b80548390036112a357604051634913e51d60e11b8152600481018690526024016106fd565b600085815260026020908152604080832086845290915290205460ff1660018160038111156112d4576112d4611c59565b141580156112f4575060028160038111156112f1576112f1611c59565b14155b1561131c5760405163d2b32a5f60e01b815260048101879052602481018590526044016106fd565b60008681526002602090815260408083208784528252918290208054600360ff199091168117909155840185905560048401805467ffffffffffffffff60401b1916600160401b426001600160401b03160217905590518481528691869189917f2fd570b64712d07a1a97099fc0f339a5da9afc9d53a2e0fcbb9ba4afa8854fb09101610b9d565b6001602081905260009182526040909120805491810180546113c590612023565b80601f01602080910402602001604051908101604052809291908181526020018280546113f190612023565b801561143e5780601f106114135761010080835404028352916020019161143e565b820191906000526020600020905b81548152906001019060200180831161142157829003601f168201915b50505060028401546003850154600490950154939490939092506001600160401b038082169250600160401b8204169060ff600160801b9091041687565b6107c481336119ad565b60006000805160206122128339815191526114a18484610ffc565b611521576000848152602082815260408083206001600160a01b03871684529091529020805460ff191660011790556114d73390565b6001600160a01b0316836001600160a01b0316857f2f8788117e7eff1d82e926ec794901d17c78024a50270940304540a733656f0d60405160405180910390a460019150506105c3565b60009150506105c3565b5092915050565b600060008051602061221283398151915261154d8484610ffc565b15611521576000848152602082815260408083206001600160a01b0387168085529252808320805460ff1916905551339287917ff6391f5c32d9c69d2a47ea670b442974b53935d1edc7fd64eb21e047a839171b9190a460019150506105c3565b6115b66119e6565b600080516020612232833981519152805460ff191681557f5db9ee0a495bf2e6ff9c91a7834c1ba4fdd244a5e8aa4e537bd38aeae4b073aa335b6040516001600160a01b03909116815260200160405180910390a150565b6000807ff0c57e16840df040f15088dc2f81fe391c3923bec73e23a9662efc9c229c6a006105c3565b61163f611a16565b565b306001600160a01b037f00000000000000000000000000000000000000000000000000000000000000001614806116c857507f00000000000000000000000000000000000000000000000000000000000000006001600160a01b03166116bc6000805160206121d2833981519152546001600160a01b031690565b6001600160a01b031614155b1561163f5760405163703e46dd60e11b815260040160405180910390fd5b600061095f8161147c565b816001600160a01b03166352d1902d6040518163ffffffff1660e01b8152600401602060405180830381865afa92505050801561174b575060408051601f3d908101601f1916820190925261174891810190612179565b60015b61177357604051634c9c8ce360e01b81526001600160a01b03831660048201526024016106fd565b6000805160206121d283398151915281146117a457604051632a87526960e21b8152600481018290526024016106fd565b61079f8383611a3b565b306001600160a01b037f0000000000000000000000000000000000000000000000000000000000000000161461163f5760405163703e46dd60e11b815260040160405180910390fd5b6000805160206122328339815191525460ff161561163f5760405163d93c066560e01b815260040160405180910390fd5b611831816118d3565b6000805460405163478c0ad960e11b8152600481018490526001600160a01b0390911690638f1815b290602401602060405180830381865afa15801561187b573d6000803e3d6000fd5b505050506040513d601f19601f8201168201806040525081019061189f9190612192565b90506001600160a01b038116331461095f5760405163fb68a6cd60e01b8152600481018390523360248201526044016106fd565b6000805460405163170da40760e21b8152600481018490526001600160a01b0390911690635c36901c90602401602060405180830381865afa15801561191d573d6000803e3d6000fd5b505050506040513d601f19601f8201168201806040525081019061194191906121af565b90508061095f576040516394d205af60e01b8152600481018390526024016106fd565b61196c6117f7565b600080516020612232833981519152805460ff191660011781557f62e78cea01bee320cd4e420270b5ea74000d11b0c9f74754ebdbfc544b05a258336115f0565b6119b78282610ffc565b61095f5760405163e2517d3f60e01b81526001600160a01b0382166004820152602481018390526044016106fd565b6000805160206122328339815191525460ff1661163f57604051638dfc202b60e01b815260040160405180910390fd5b611a1e611a91565b61163f57604051631afcd79f60e31b815260040160405180910390fd5b611a4482611aab565b6040516001600160a01b038316907fbc7cd75a20ee27fd9adebab32041f755214dbc6bffa90cc0225b39da2e5c2d3b90600090a2805115611a895761079f8282611b10565b61095f611bac565b6000611a9b61160e565b54600160401b900460ff16919050565b806001600160a01b03163b600003611ae157604051634c9c8ce360e01b81526001600160a01b03821660048201526024016106fd565b6000805160206121d283398151915280546001600160a01b0319166001600160a01b0392909216919091179055565b60606000611b1e8484611bcb565b9050808015611b41575060003d1180611b4157506000846001600160a01b03163b115b15611b5657611b4e611be0565b9150506105c3565b8015611b8057604051639996b31560e01b81526001600160a01b03851660048201526024016106fd565b3d15611b9357611b8e611bfa565b61152b565b60405163d6bda27560e01b815260040160405180910390fd5b341561163f5760405163b398979f60e01b815260040160405180910390fd5b6000806000835160208501865af49392505050565b6040513d81523d6000602083013e3d602001810160405290565b6040513d6000823e3d81fd5b600060208284031215611c1857600080fd5b81356001600160e01b031981168114611c3057600080fd5b9392505050565b60008060408385031215611c4a57600080fd5b50508035926020909101359150565b634e487b7160e01b600052602160045260246000fd5b6020810160048310611c9157634e487b7160e01b600052602160045260246000fd5b91905290565b600060208284031215611ca957600080fd5b5035919050565b6001600160a01b03811681146107c457600080fd5b60008060408385031215611cd857600080fd5b823591506020830135611cea81611cb0565b809150509250929050565b60008060408385031215611d0857600080fd5b8235611d1381611cb0565b91506020830135611cea81611cb0565b634e487b7160e01b600052604160045260246000fd5b60008060408385031215611d4c57600080fd5b8235611d5781611cb0565b915060208301356001600160401b03811115611d7257600080fd5b8301601f81018513611d8357600080fd5b80356001600160401b03811115611d9c57611d9c611d23565b604051601f8201601f19908116603f011681016001600160401b0381118282101715611dca57611dca611d23565b604052818152828201602001871015611de257600080fd5b816020840160208301376000602083830101528093505050509250929050565b60008060008060808587031215611e1857600080fd5b5050823594602084013594506040840135936060013592509050565b60008060008060008060a08789031215611e4d57600080fd5b863595506020870135945060408701356001600160401b03811115611e7157600080fd5b8701601f81018913611e8257600080fd5b80356001600160401b03811115611e9857600080fd5b896020828401011115611eaa57600080fd5b969995985060200196606081013595608090910135945092505050565b600080600080600060a08688031215611edf57600080fd5b505083359560208501359550604085013594606081013594506080013592509050565b6000815180845260005b81811015611f2857602081850181015186830182015201611f0c565b506000602082860101526020601f19601f83011685010191505092915050565b602081526000611c306020830184611f02565b60208152815160208201526000602083015160e06040840152611f82610100840182611f02565b905060408401516060840152606084015160808401526001600160401b0360808501511660a08401526001600160401b0360a08501511660c084015260c0840151151560e08401528091505092915050565b87815260e060208201526000611fed60e0830189611f02565b60408301979097525060608101949094526001600160401b039283166080850152911660a0830152151560c09091015292915050565b600181811c9082168061203757607f821691505b60208210810361205757634e487b7160e01b600052602260045260246000fd5b50919050565b601f82111561079f57806000526020600020601f840160051c810160208510156120845750805b601f840160051c820191505b818110156120a45760008155600101612090565b5050505050565b81516001600160401b038111156120c4576120c4611d23565b6120d8816120d28454612023565b8461205d565b6020601f82116001811461210c57600083156120f45750848201515b600019600385901b1c1916600184901b1784556120a4565b600084815260208120601f198516915b8281101561213c578785015182556020948501946001909201910161211c565b508482101561215a5786840151600019600387901b60f8161c191681555b50505050600190811b01905550565b8183823760009101908152919050565b60006020828403121561218b57600080fd5b5051919050565b6000602082840312156121a457600080fd5b8151611c3081611cb0565b6000602082840312156121c157600080fd5b81518015158114611c3057600080fdfe360894a13ba1a3210667c828492db98dca3e2076cc3735a920a3ca505d382bbc65d7a28e3265b37a6474929f336521b332c1681b933f6cb9f3376673440d862a02dd7bc7dec4dceedda775e58dd541e08a116c6c53815c0bd028192f7b626800cd5ed15c6e187e77e9aee88184c21f4f2182ab5827cb3b7e07fbedcd63f03300a2646970667358221220f78e7c5c4508a746c596d40646f2ab5623bf28e0f14d4536f99e5097be9454ce64736f6c634300081c0033","opcodes":"PUSH1 0xA0 PUSH1 0x40 MSTORE ADDRESS PUSH1 0x80 MSTORE CALLVALUE DUP1 ISZERO PUSH2 0x14 JUMPI PUSH1 0x0 DUP1 REVERT JUMPDEST POP PUSH2 0x1D PUSH2 0x22 JUMP JUMPDEST PUSH2 0xD4 JUMP JUMPDEST PUSH32 0xF0C57E16840DF040F15088DC2F81FE391C3923BEC73E23A9662EFC9C229C6A00 DUP1 SLOAD PUSH9 0x10000000000000000 SWAP1 DIV PUSH1 0xFF AND ISZERO PUSH2 0x72 JUMPI PUSH1 0x40 MLOAD PUSH4 0xF92EE8A9 PUSH1 0xE0 SHL DUP2 MSTORE PUSH1 0x4 ADD PUSH1 0x40 MLOAD DUP1 SWAP2 SUB SWAP1 REVERT JUMPDEST DUP1 SLOAD PUSH1 0x1 PUSH1 0x1 PUSH1 0x40 SHL SUB SWAP1 DUP2 AND EQ PUSH2 0xD1 JUMPI DUP1 SLOAD PUSH1 0x1 PUSH1 0x1 PUSH1 0x40 SHL SUB NOT AND PUSH1 0x1 PUSH1 0x1 PUSH1 0x40 SHL SUB SWAP1 DUP2 OR DUP3 SSTORE PUSH1 0x40 MLOAD SWAP1 DUP2 MSTORE PUSH32 0xC7F505B2F371AE2175EE4913F4499E1F2633A7B5936321EED1CDAEB6115181D2 SWAP1 PUSH1 0x20 ADD PUSH1 0x40 MLOAD DUP1 SWAP2 SUB SWAP1 LOG1 JUMPDEST POP JUMP JUMPDEST PUSH1 0x80 MLOAD PUSH2 0x2287 PUSH2 0xFD PUSH1 0x0 CODECOPY PUSH1 0x0 DUP2 DUP2 PUSH2 0x164C ADD MSTORE DUP2 DUP2 PUSH2 0x1675 ADD MSTORE PUSH2 0x17B9 ADD MSTORE PUSH2 0x2287 PUSH1 0x0 RETURN INVALID PUSH1 0x80 PUSH1 0x40 MSTORE PUSH1 0x4 CALLDATASIZE LT PUSH2 0x181 JUMPI PUSH1 0x0 CALLDATALOAD PUSH1 0xE0 SHR DUP1 PUSH4 0x69A25C67 GT PUSH2 0xD1 JUMPI DUP1 PUSH4 0xA57D2093 GT PUSH2 0x8A JUMPI DUP1 PUSH4 0xD547741F GT PUSH2 0x64 JUMPI DUP1 PUSH4 0xD547741F EQ PUSH2 0x4FD JUMPI DUP1 PUSH4 0xE4EE18FE EQ PUSH2 0x51D JUMPI DUP1 PUSH4 0xE63AB1E9 EQ PUSH2 0x53D JUMPI DUP1 PUSH4 0xEF161BCB EQ PUSH2 0x55F JUMPI PUSH1 0x0 DUP1 REVERT JUMPDEST DUP1 PUSH4 0xA57D2093 EQ PUSH2 0x457 JUMPI DUP1 PUSH4 0xAD3CB1CC EQ PUSH2 0x492 JUMPI DUP1 PUSH4 0xB567D4BA EQ PUSH2 0x4D0 JUMPI PUSH1 0x0 DUP1 REVERT JUMPDEST DUP1 PUSH4 0x69A25C67 EQ PUSH2 0x3AD JUMPI DUP1 PUSH4 0x76EB4325 EQ PUSH2 0x3CD JUMPI DUP1 PUSH4 0x7824FB3B EQ PUSH2 0x3ED JUMPI DUP1 PUSH4 0x8456CB59 EQ PUSH2 0x40D JUMPI DUP1 PUSH4 0x91D14854 EQ PUSH2 0x422 JUMPI DUP1 PUSH4 0xA217FDDF EQ PUSH2 0x442 JUMPI PUSH1 0x0 DUP1 REVERT JUMPDEST DUP1 PUSH4 0x3F4BA83A GT PUSH2 0x13E JUMPI DUP1 PUSH4 0x52D1902D GT PUSH2 0x118 JUMPI DUP1 PUSH4 0x52D1902D EQ PUSH2 0x2D8 JUMPI DUP1 PUSH4 0x5C975ABB EQ PUSH2 0x2ED JUMPI DUP1 PUSH4 0x5FDF065E EQ PUSH2 0x312 JUMPI DUP1 PUSH4 0x63858AA2 EQ PUSH2 0x332 JUMPI PUSH1 0x0 DUP1 REVERT JUMPDEST DUP1 PUSH4 0x3F4BA83A EQ PUSH2 0x290 JUMPI DUP1 PUSH4 0x485CC955 EQ PUSH2 0x2A5 JUMPI DUP1 PUSH4 0x4F1EF286 EQ PUSH2 0x2C5 JUMPI PUSH1 0x0 DUP1 REVERT JUMPDEST DUP1 PUSH4 0x1FFC9A7 EQ PUSH2 0x186 JUMPI DUP1 PUSH4 0x134E1897 EQ PUSH2 0x1BB JUMPI DUP1 PUSH4 0x248A9CA3 EQ PUSH2 0x1E8 JUMPI DUP1 PUSH4 0x2C159A1A EQ PUSH2 0x216 JUMPI DUP1 PUSH4 0x2F2FF15D EQ PUSH2 0x24E JUMPI DUP1 PUSH4 0x36568ABE EQ PUSH2 0x270 JUMPI JUMPDEST PUSH1 0x0 DUP1 REVERT JUMPDEST CALLVALUE DUP1 ISZERO PUSH2 0x192 JUMPI PUSH1 0x0 DUP1 REVERT JUMPDEST POP PUSH2 0x1A6 PUSH2 0x1A1 CALLDATASIZE PUSH1 0x4 PUSH2 0x1C06 JUMP JUMPDEST PUSH2 0x592 JUMP JUMPDEST PUSH1 0x40 MLOAD SWAP1 ISZERO ISZERO DUP2 MSTORE PUSH1 0x20 ADD JUMPDEST PUSH1 0x40 MLOAD DUP1 SWAP2 SUB SWAP1 RETURN JUMPDEST CALLVALUE DUP1 ISZERO PUSH2 0x1C7 JUMPI PUSH1 0x0 DUP1 REVERT JUMPDEST POP PUSH2 0x1DB PUSH2 0x1D6 CALLDATASIZE PUSH1 0x4 PUSH2 0x1C37 JUMP JUMPDEST PUSH2 0x5C9 JUMP JUMPDEST PUSH1 0x40 MLOAD PUSH2 0x1B2 SWAP2 SWAP1 PUSH2 0x1C6F JUMP JUMPDEST CALLVALUE DUP1 ISZERO PUSH2 0x1F4 JUMPI PUSH1 0x0 DUP1 REVERT JUMPDEST POP PUSH2 0x208 PUSH2 0x203 CALLDATASIZE PUSH1 0x4 PUSH2 0x1C97 JUMP JUMPDEST PUSH2 0x728 JUMP JUMPDEST PUSH1 0x40 MLOAD SWAP1 DUP2 MSTORE PUSH1 0x20 ADD PUSH2 0x1B2 JUMP JUMPDEST CALLVALUE DUP1 ISZERO PUSH2 0x222 JUMPI PUSH1 0x0 DUP1 REVERT JUMPDEST POP PUSH1 0x0 SLOAD PUSH2 0x236 SWAP1 PUSH1 0x1 PUSH1 0x1 PUSH1 0xA0 SHL SUB AND DUP2 JUMP JUMPDEST PUSH1 0x40 MLOAD PUSH1 0x1 PUSH1 0x1 PUSH1 0xA0 SHL SUB SWAP1 SWAP2 AND DUP2 MSTORE PUSH1 0x20 ADD PUSH2 0x1B2 JUMP JUMPDEST CALLVALUE DUP1 ISZERO PUSH2 0x25A JUMPI PUSH1 0x0 DUP1 REVERT JUMPDEST POP PUSH2 0x26E PUSH2 0x269 CALLDATASIZE PUSH1 0x4 PUSH2 0x1CC5 JUMP JUMPDEST PUSH2 0x74A JUMP JUMPDEST STOP JUMPDEST CALLVALUE DUP1 ISZERO PUSH2 0x27C JUMPI PUSH1 0x0 DUP1 REVERT JUMPDEST POP PUSH2 0x26E PUSH2 0x28B CALLDATASIZE PUSH1 0x4 PUSH2 0x1CC5 JUMP JUMPDEST PUSH2 0x76C JUMP JUMPDEST CALLVALUE DUP1 ISZERO PUSH2 0x29C JUMPI PUSH1 0x0 DUP1 REVERT JUMPDEST POP PUSH2 0x26E PUSH2 0x7A4 JUMP JUMPDEST CALLVALUE DUP1 ISZERO PUSH2 0x2B1 JUMPI PUSH1 0x0 DUP1 REVERT JUMPDEST POP PUSH2 0x26E PUSH2 0x2C0 CALLDATASIZE PUSH1 0x4 PUSH2 0x1CF5 JUMP JUMPDEST PUSH2 0x7C7 JUMP JUMPDEST PUSH2 0x26E PUSH2 0x2D3 CALLDATASIZE PUSH1 0x4 PUSH2 0x1D39 JUMP JUMPDEST PUSH2 0x944 JUMP JUMPDEST CALLVALUE DUP1 ISZERO PUSH2 0x2E4 JUMPI PUSH1 0x0 DUP1 REVERT JUMPDEST POP PUSH2 0x208 PUSH2 0x963 JUMP JUMPDEST CALLVALUE DUP1 ISZERO PUSH2 0x2F9 JUMPI PUSH1 0x0 DUP1 REVERT JUMPDEST POP PUSH1 0x0 DUP1 MLOAD PUSH1 0x20 PUSH2 0x2232 DUP4 CODECOPY DUP2 MLOAD SWAP2 MSTORE SLOAD PUSH1 0xFF AND PUSH2 0x1A6 JUMP JUMPDEST CALLVALUE DUP1 ISZERO PUSH2 0x31E JUMPI PUSH1 0x0 DUP1 REVERT JUMPDEST POP PUSH2 0x1A6 PUSH2 0x32D CALLDATASIZE PUSH1 0x4 PUSH2 0x1C37 JUMP JUMPDEST PUSH2 0x980 JUMP JUMPDEST CALLVALUE DUP1 ISZERO PUSH2 0x33E JUMPI PUSH1 0x0 DUP1 REVERT JUMPDEST POP PUSH2 0x385 PUSH2 0x34D CALLDATASIZE PUSH1 0x4 PUSH2 0x1C37 JUMP JUMPDEST PUSH1 0x3 PUSH1 0x20 SWAP1 DUP2 MSTORE PUSH1 0x0 SWAP3 DUP4 MSTORE PUSH1 0x40 DUP1 DUP5 KECCAK256 SWAP1 SWAP2 MSTORE SWAP1 DUP3 MSTORE SWAP1 KECCAK256 DUP1 SLOAD PUSH1 0x1 DUP3 ADD SLOAD PUSH1 0x2 SWAP1 SWAP3 ADD SLOAD SWAP1 SWAP2 SWAP1 PUSH1 0xFF DUP1 DUP3 AND SWAP2 PUSH2 0x100 SWAP1 DIV AND DUP5 JUMP JUMPDEST PUSH1 0x40 DUP1 MLOAD SWAP5 DUP6 MSTORE PUSH1 0x20 DUP6 ADD SWAP4 SWAP1 SWAP4 MSTORE SWAP1 ISZERO ISZERO SWAP2 DUP4 ADD SWAP2 SWAP1 SWAP2 MSTORE ISZERO ISZERO PUSH1 0x60 DUP3 ADD MSTORE PUSH1 0x80 ADD PUSH2 0x1B2 JUMP JUMPDEST CALLVALUE DUP1 ISZERO PUSH2 0x3B9 JUMPI PUSH1 0x0 DUP1 REVERT JUMPDEST POP PUSH2 0x26E PUSH2 0x3C8 CALLDATASIZE PUSH1 0x4 PUSH2 0x1E02 JUMP JUMPDEST PUSH2 0x9B6 JUMP JUMPDEST CALLVALUE DUP1 ISZERO PUSH2 0x3D9 JUMPI PUSH1 0x0 DUP1 REVERT JUMPDEST POP PUSH2 0x26E PUSH2 0x3E8 CALLDATASIZE PUSH1 0x4 PUSH2 0x1E34 JUMP JUMPDEST PUSH2 0xBAD JUMP JUMPDEST CALLVALUE DUP1 ISZERO PUSH2 0x3F9 JUMPI PUSH1 0x0 DUP1 REVERT JUMPDEST POP PUSH2 0x26E PUSH2 0x408 CALLDATASIZE PUSH1 0x4 PUSH2 0x1EC7 JUMP JUMPDEST PUSH2 0xDC7 JUMP JUMPDEST CALLVALUE DUP1 ISZERO PUSH2 0x419 JUMPI PUSH1 0x0 DUP1 REVERT JUMPDEST POP PUSH2 0x26E PUSH2 0xFDC JUMP JUMPDEST CALLVALUE DUP1 ISZERO PUSH2 0x42E JUMPI PUSH1 0x0 DUP1 REVERT JUMPDEST POP PUSH2 0x1A6 PUSH2 0x43D CALLDATASIZE PUSH1 0x4 PUSH2 0x1CC5 JUMP JUMPDEST PUSH2 0xFFC JUMP JUMPDEST CALLVALUE DUP1 ISZERO PUSH2 0x44E JUMPI PUSH1 0x0 DUP1 REVERT JUMPDEST POP PUSH2 0x208 PUSH1 0x0 DUP2 JUMP JUMPDEST CALLVALUE DUP1 ISZERO PUSH2 0x463 JUMPI PUSH1 0x0 DUP1 REVERT JUMPDEST POP PUSH2 0x1DB PUSH2 0x472 CALLDATASIZE PUSH1 0x4 PUSH2 0x1C37 JUMP JUMPDEST PUSH1 0x2 PUSH1 0x20 SWAP1 DUP2 MSTORE PUSH1 0x0 SWAP3 DUP4 MSTORE PUSH1 0x40 DUP1 DUP5 KECCAK256 SWAP1 SWAP2 MSTORE SWAP1 DUP3 MSTORE SWAP1 KECCAK256 SLOAD PUSH1 0xFF AND DUP2 JUMP JUMPDEST CALLVALUE DUP1 ISZERO PUSH2 0x49E JUMPI PUSH1 0x0 DUP1 REVERT JUMPDEST POP PUSH2 0x4C3 PUSH1 0x40 MLOAD DUP1 PUSH1 0x40 ADD PUSH1 0x40 MSTORE DUP1 PUSH1 0x5 DUP2 MSTORE PUSH1 0x20 ADD PUSH5 0x352E302E3 PUSH1 0xDC SHL DUP2 MSTORE POP DUP2 JUMP JUMPDEST PUSH1 0x40 MLOAD PUSH2 0x1B2 SWAP2 SWAP1 PUSH2 0x1F48 JUMP JUMPDEST CALLVALUE DUP1 ISZERO PUSH2 0x4DC JUMPI PUSH1 0x0 DUP1 REVERT JUMPDEST POP PUSH2 0x4F0 PUSH2 0x4EB CALLDATASIZE PUSH1 0x4 PUSH2 0x1C97 JUMP JUMPDEST PUSH2 0x1034 JUMP JUMPDEST PUSH1 0x40 MLOAD PUSH2 0x1B2 SWAP2 SWAP1 PUSH2 0x1F5B JUMP JUMPDEST CALLVALUE DUP1 ISZERO PUSH2 0x509 JUMPI PUSH1 0x0 DUP1 REVERT JUMPDEST POP PUSH2 0x26E PUSH2 0x518 CALLDATASIZE PUSH1 0x4 PUSH2 0x1CC5 JUMP JUMPDEST PUSH2 0x1198 JUMP JUMPDEST CALLVALUE DUP1 ISZERO PUSH2 0x529 JUMPI PUSH1 0x0 DUP1 REVERT JUMPDEST POP PUSH2 0x26E PUSH2 0x538 CALLDATASIZE PUSH1 0x4 PUSH2 0x1E02 JUMP JUMPDEST PUSH2 0x11B4 JUMP JUMPDEST CALLVALUE DUP1 ISZERO PUSH2 0x549 JUMPI PUSH1 0x0 DUP1 REVERT JUMPDEST POP PUSH2 0x208 PUSH1 0x0 DUP1 MLOAD PUSH1 0x20 PUSH2 0x21F2 DUP4 CODECOPY DUP2 MLOAD SWAP2 MSTORE DUP2 JUMP JUMPDEST CALLVALUE DUP1 ISZERO PUSH2 0x56B JUMPI PUSH1 0x0 DUP1 REVERT JUMPDEST POP PUSH2 0x57F PUSH2 0x57A CALLDATASIZE PUSH1 0x4 PUSH2 0x1C97 JUMP JUMPDEST PUSH2 0x13A4 JUMP JUMPDEST PUSH1 0x40 MLOAD PUSH2 0x1B2 SWAP8 SWAP7 SWAP6 SWAP5 SWAP4 SWAP3 SWAP2 SWAP1 PUSH2 0x1FD4 JUMP JUMPDEST PUSH1 0x0 PUSH1 0x1 PUSH1 0x1 PUSH1 0xE0 SHL SUB NOT DUP3 AND PUSH4 0x7965DB0B PUSH1 0xE0 SHL EQ DUP1 PUSH2 0x5C3 JUMPI POP PUSH4 0x1FFC9A7 PUSH1 0xE0 SHL PUSH1 0x1 PUSH1 0x1 PUSH1 0xE0 SHL SUB NOT DUP4 AND EQ JUMPDEST SWAP3 SWAP2 POP POP JUMP JUMPDEST PUSH1 0x0 DUP1 PUSH1 0x1 PUSH1 0x0 DUP6 DUP2 MSTORE PUSH1 0x20 ADD SWAP1 DUP2 MSTORE PUSH1 0x20 ADD PUSH1 0x0 KECCAK256 PUSH1 0x40 MLOAD DUP1 PUSH1 0xE0 ADD PUSH1 0x40 MSTORE SWAP1 DUP2 PUSH1 0x0 DUP3 ADD SLOAD DUP2 MSTORE PUSH1 0x20 ADD PUSH1 0x1 DUP3 ADD DUP1 SLOAD PUSH2 0x604 SWAP1 PUSH2 0x2023 JUMP JUMPDEST DUP1 PUSH1 0x1F ADD PUSH1 0x20 DUP1 SWAP2 DIV MUL PUSH1 0x20 ADD PUSH1 0x40 MLOAD SWAP1 DUP2 ADD PUSH1 0x40 MSTORE DUP1 SWAP3 SWAP2 SWAP1 DUP2 DUP2 MSTORE PUSH1 0x20 ADD DUP3 DUP1 SLOAD PUSH2 0x630 SWAP1 PUSH2 0x2023 JUMP JUMPDEST DUP1 ISZERO PUSH2 0x67D JUMPI DUP1 PUSH1 0x1F LT PUSH2 0x652 JUMPI PUSH2 0x100 DUP1 DUP4 SLOAD DIV MUL DUP4 MSTORE SWAP2 PUSH1 0x20 ADD SWAP2 PUSH2 0x67D JUMP JUMPDEST DUP3 ADD SWAP2 SWAP1 PUSH1 0x0 MSTORE PUSH1 0x20 PUSH1 0x0 KECCAK256 SWAP1 JUMPDEST DUP2 SLOAD DUP2 MSTORE SWAP1 PUSH1 0x1 ADD SWAP1 PUSH1 0x20 ADD DUP1 DUP4 GT PUSH2 0x660 JUMPI DUP3 SWAP1 SUB PUSH1 0x1F AND DUP3 ADD SWAP2 JUMPDEST POP POP POP SWAP2 DUP4 MSTORE POP POP PUSH1 0x2 DUP3 ADD SLOAD PUSH1 0x20 DUP3 ADD MSTORE PUSH1 0x3 DUP3 ADD SLOAD PUSH1 0x40 DUP3 ADD MSTORE PUSH1 0x4 SWAP1 SWAP2 ADD SLOAD PUSH1 0x1 PUSH1 0x1 PUSH1 0x40 SHL SUB DUP1 DUP3 AND PUSH1 0x60 DUP5 ADD MSTORE PUSH1 0x1 PUSH1 0x40 SHL DUP3 DIV DUP2 AND PUSH1 0x80 DUP1 DUP6 ADD SWAP2 SWAP1 SWAP2 MSTORE PUSH1 0x1 PUSH1 0x80 SHL SWAP1 SWAP3 DIV PUSH1 0xFF AND ISZERO ISZERO PUSH1 0xA0 SWAP1 SWAP4 ADD SWAP3 SWAP1 SWAP3 MSTORE DUP3 ADD MLOAD SWAP2 SWAP3 POP AND PUSH1 0x0 SUB PUSH2 0x706 JUMPI PUSH1 0x40 MLOAD PUSH4 0x37B0C22D PUSH1 0xE2 SHL DUP2 MSTORE PUSH1 0x4 DUP2 ADD DUP6 SWAP1 MSTORE PUSH1 0x24 ADD JUMPDEST PUSH1 0x40 MLOAD DUP1 SWAP2 SUB SWAP1 REVERT JUMPDEST POP POP PUSH1 0x0 SWAP2 DUP3 MSTORE PUSH1 0x2 PUSH1 0x20 SWAP1 DUP2 MSTORE PUSH1 0x40 DUP1 DUP5 KECCAK256 SWAP3 DUP5 MSTORE SWAP2 SWAP1 MSTORE SWAP1 KECCAK256 SLOAD PUSH1 0xFF AND SWAP1 JUMP JUMPDEST PUSH1 0x0 SWAP1 DUP2 MSTORE PUSH1 0x0 DUP1 MLOAD PUSH1 0x20 PUSH2 0x2212 DUP4 CODECOPY DUP2 MLOAD SWAP2 MSTORE PUSH1 0x20 MSTORE PUSH1 0x40 SWAP1 KECCAK256 PUSH1 0x1 ADD SLOAD SWAP1 JUMP JUMPDEST PUSH2 0x753 DUP3 PUSH2 0x728 JUMP JUMPDEST PUSH2 0x75C DUP2 PUSH2 0x147C JUMP JUMPDEST PUSH2 0x766 DUP4 DUP4 PUSH2 0x1486 JUMP JUMPDEST POP POP POP POP JUMP JUMPDEST PUSH1 0x1 PUSH1 0x1 PUSH1 0xA0 SHL SUB DUP2 AND CALLER EQ PUSH2 0x795 JUMPI PUSH1 0x40 MLOAD PUSH4 0x334BD919 PUSH1 0xE1 SHL DUP2 MSTORE PUSH1 0x4 ADD PUSH1 0x40 MLOAD DUP1 SWAP2 SUB SWAP1 REVERT JUMPDEST PUSH2 0x79F DUP3 DUP3 PUSH2 0x1532 JUMP JUMPDEST POP POP POP JUMP JUMPDEST PUSH1 0x0 DUP1 MLOAD PUSH1 0x20 PUSH2 0x21F2 DUP4 CODECOPY DUP2 MLOAD SWAP2 MSTORE PUSH2 0x7BC DUP2 PUSH2 0x147C JUMP JUMPDEST PUSH2 0x7C4 PUSH2 0x15AE JUMP JUMPDEST POP JUMP JUMPDEST PUSH1 0x0 PUSH2 0x7D1 PUSH2 0x160E JUMP JUMPDEST DUP1 SLOAD SWAP1 SWAP2 POP PUSH1 0xFF PUSH1 0x1 PUSH1 0x40 SHL DUP3 DIV AND ISZERO SWAP1 PUSH1 0x1 PUSH1 0x1 PUSH1 0x40 SHL SUB AND PUSH1 0x0 DUP2 ISZERO DUP1 ISZERO PUSH2 0x7F8 JUMPI POP DUP3 JUMPDEST SWAP1 POP PUSH1 0x0 DUP3 PUSH1 0x1 PUSH1 0x1 PUSH1 0x40 SHL SUB AND PUSH1 0x1 EQ DUP1 ISZERO PUSH2 0x814 JUMPI POP ADDRESS EXTCODESIZE ISZERO JUMPDEST SWAP1 POP DUP2 ISZERO DUP1 ISZERO PUSH2 0x822 JUMPI POP DUP1 ISZERO JUMPDEST ISZERO PUSH2 0x840 JUMPI PUSH1 0x40 MLOAD PUSH4 0xF92EE8A9 PUSH1 0xE0 SHL DUP2 MSTORE PUSH1 0x4 ADD PUSH1 0x40 MLOAD DUP1 SWAP2 SUB SWAP1 REVERT JUMPDEST DUP5 SLOAD PUSH8 0xFFFFFFFFFFFFFFFF NOT AND PUSH1 0x1 OR DUP6 SSTORE DUP4 ISZERO PUSH2 0x86A JUMPI DUP5 SLOAD PUSH1 0xFF PUSH1 0x40 SHL NOT AND PUSH1 0x1 PUSH1 0x40 SHL OR DUP6 SSTORE JUMPDEST PUSH1 0x1 PUSH1 0x1 PUSH1 0xA0 SHL SUB DUP8 AND ISZERO DUP1 PUSH2 0x887 JUMPI POP PUSH1 0x1 PUSH1 0x1 PUSH1 0xA0 SHL SUB DUP7 AND ISZERO JUMPDEST ISZERO PUSH2 0x8A5 JUMPI PUSH1 0x40 MLOAD PUSH4 0xD92E233D PUSH1 0xE0 SHL DUP2 MSTORE PUSH1 0x4 ADD PUSH1 0x40 MLOAD DUP1 SWAP2 SUB SWAP1 REVERT JUMPDEST PUSH2 0x8AD PUSH2 0x1637 JUMP JUMPDEST PUSH2 0x8B5 PUSH2 0x1637 JUMP JUMPDEST PUSH2 0x8C0 PUSH1 0x0 DUP9 PUSH2 0x1486 JUMP JUMPDEST POP PUSH2 0x8D9 PUSH1 0x0 DUP1 MLOAD PUSH1 0x20 PUSH2 0x21F2 DUP4 CODECOPY DUP2 MLOAD SWAP2 MSTORE DUP9 PUSH2 0x1486 JUMP JUMPDEST POP PUSH1 0x0 DUP1 SLOAD PUSH1 0x1 PUSH1 0x1 PUSH1 0xA0 SHL SUB NOT AND PUSH1 0x1 PUSH1 0x1 PUSH1 0xA0 SHL SUB DUP9 AND OR SWAP1 SSTORE DUP4 ISZERO PUSH2 0x93B JUMPI DUP5 SLOAD PUSH1 0xFF PUSH1 0x40 SHL NOT AND DUP6 SSTORE PUSH1 0x40 MLOAD PUSH1 0x1 DUP2 MSTORE PUSH32 0xC7F505B2F371AE2175EE4913F4499E1F2633A7B5936321EED1CDAEB6115181D2 SWAP1 PUSH1 0x20 ADD PUSH1 0x40 MLOAD DUP1 SWAP2 SUB SWAP1 LOG1 JUMPDEST POP POP POP POP POP POP POP JUMP JUMPDEST PUSH2 0x94C PUSH2 0x1641 JUMP JUMPDEST PUSH2 0x955 DUP3 PUSH2 0x16E6 JUMP JUMPDEST PUSH2 0x95F DUP3 DUP3 PUSH2 0x16F1 JUMP JUMPDEST POP POP JUMP JUMPDEST PUSH1 0x0 PUSH2 0x96D PUSH2 0x17AE JUMP JUMPDEST POP PUSH1 0x0 DUP1 MLOAD PUSH1 0x20 PUSH2 0x21D2 DUP4 CODECOPY DUP2 MLOAD SWAP2 MSTORE SWAP1 JUMP JUMPDEST PUSH1 0x0 DUP3 DUP2 MSTORE PUSH1 0x2 PUSH1 0x20 DUP2 DUP2 MSTORE PUSH1 0x40 DUP1 DUP5 KECCAK256 DUP6 DUP6 MSTORE SWAP1 SWAP2 MSTORE DUP3 KECCAK256 SLOAD PUSH1 0xFF AND PUSH1 0x3 DUP2 GT ISZERO PUSH2 0x9AE JUMPI PUSH2 0x9AE PUSH2 0x1C59 JUMP JUMPDEST EQ SWAP4 SWAP3 POP POP POP JUMP JUMPDEST PUSH2 0x9BE PUSH2 0x17F7 JUMP JUMPDEST PUSH1 0x0 DUP5 DUP2 MSTORE PUSH1 0x1 PUSH1 0x20 MSTORE PUSH1 0x40 DUP2 KECCAK256 PUSH1 0x4 DUP2 ADD SLOAD SWAP1 SWAP2 PUSH1 0x1 PUSH1 0x1 PUSH1 0x40 SHL SUB SWAP1 SWAP2 AND SWAP1 SUB PUSH2 0xA00 JUMPI PUSH1 0x40 MLOAD PUSH4 0x37B0C22D PUSH1 0xE2 SHL DUP2 MSTORE PUSH1 0x4 DUP2 ADD DUP7 SWAP1 MSTORE PUSH1 0x24 ADD PUSH2 0x6FD JUMP JUMPDEST PUSH1 0x4 DUP2 ADD SLOAD PUSH1 0x1 PUSH1 0x80 SHL SWAP1 DIV PUSH1 0xFF AND PUSH2 0xA2F JUMPI PUSH1 0x40 MLOAD PUSH4 0xC678D9B5 PUSH1 0xE0 SHL DUP2 MSTORE PUSH1 0x4 DUP2 ADD DUP7 SWAP1 MSTORE PUSH1 0x24 ADD PUSH2 0x6FD JUMP JUMPDEST DUP2 PUSH2 0xA4C JUMPI PUSH1 0x40 MLOAD PUSH3 0x57C037 PUSH1 0xE5 SHL DUP2 MSTORE PUSH1 0x4 ADD PUSH1 0x40 MLOAD DUP1 SWAP2 SUB SWAP1 REVERT JUMPDEST PUSH1 0x0 DUP6 DUP2 MSTORE PUSH1 0x3 PUSH1 0x20 SWAP1 DUP2 MSTORE PUSH1 0x40 DUP1 DUP4 KECCAK256 DUP8 DUP5 MSTORE SWAP1 SWAP2 MSTORE SWAP1 KECCAK256 PUSH1 0x2 DUP2 ADD SLOAD PUSH1 0xFF AND PUSH2 0xA94 JUMPI PUSH1 0x40 MLOAD PUSH4 0x12CAA3AD PUSH1 0xE0 SHL DUP2 MSTORE PUSH1 0x4 DUP2 ADD DUP8 SWAP1 MSTORE PUSH1 0x24 DUP2 ADD DUP7 SWAP1 MSTORE PUSH1 0x44 ADD PUSH2 0x6FD JUMP JUMPDEST PUSH1 0x2 DUP2 ADD SLOAD PUSH2 0x100 SWAP1 DIV PUSH1 0xFF AND ISZERO PUSH2 0xAC9 JUMPI PUSH1 0x40 MLOAD PUSH4 0x2F328EBD PUSH1 0xE2 SHL DUP2 MSTORE PUSH1 0x4 DUP2 ADD DUP8 SWAP1 MSTORE PUSH1 0x24 DUP2 ADD DUP7 SWAP1 MSTORE PUSH1 0x44 ADD PUSH2 0x6FD JUMP JUMPDEST DUP4 DUP2 PUSH1 0x1 ADD SLOAD EQ PUSH2 0xAFD JUMPI PUSH1 0x1 DUP2 ADD SLOAD PUSH1 0x40 MLOAD PUSH4 0x38F9760F PUSH1 0xE2 SHL DUP2 MSTORE PUSH1 0x4 DUP2 ADD SWAP2 SWAP1 SWAP2 MSTORE PUSH1 0x24 DUP2 ADD DUP6 SWAP1 MSTORE PUSH1 0x44 ADD PUSH2 0x6FD JUMP JUMPDEST PUSH2 0xB06 DUP5 PUSH2 0x1828 JUMP JUMPDEST PUSH1 0x2 DUP1 DUP3 ADD DUP1 SLOAD PUSH2 0xFF00 NOT AND PUSH2 0x100 OR SWAP1 SSTORE PUSH1 0x0 DUP8 DUP2 MSTORE PUSH1 0x20 DUP3 DUP2 MSTORE PUSH1 0x40 DUP1 DUP4 KECCAK256 DUP9 DUP5 MSTORE SWAP1 SWAP2 MSTORE SWAP1 KECCAK256 DUP1 SLOAD PUSH1 0xFF NOT AND PUSH1 0x1 DUP4 MUL OR SWAP1 SSTORE POP PUSH1 0x3 DUP3 ADD DUP4 SWAP1 SSTORE PUSH1 0x4 DUP3 ADD DUP1 SLOAD PUSH8 0xFFFFFFFFFFFFFFFF PUSH1 0x40 SHL NOT AND PUSH1 0x1 PUSH1 0x40 SHL TIMESTAMP PUSH1 0x1 PUSH1 0x1 PUSH1 0x40 SHL SUB AND MUL OR SWAP1 SSTORE PUSH1 0x40 MLOAD DUP4 DUP2 MSTORE DUP5 SWAP1 DUP7 SWAP1 DUP9 SWAP1 PUSH32 0xFFD9D73300E94A3B5D44AE12A4F1896DEDE0B78BABD96C4D95DDDB33062F4FF5 SWAP1 PUSH1 0x20 ADD JUMPDEST PUSH1 0x40 MLOAD DUP1 SWAP2 SUB SWAP1 LOG4 POP POP POP POP POP POP JUMP JUMPDEST PUSH2 0xBB5 PUSH2 0x17F7 JUMP JUMPDEST PUSH1 0x0 DUP7 DUP2 MSTORE PUSH1 0x1 PUSH1 0x20 MSTORE PUSH1 0x40 SWAP1 KECCAK256 PUSH1 0x4 ADD SLOAD PUSH1 0x1 PUSH1 0x1 PUSH1 0x40 SHL SUB AND ISZERO PUSH2 0xBF1 JUMPI PUSH1 0x40 MLOAD PUSH4 0xD7FB0A8B PUSH1 0xE0 SHL DUP2 MSTORE PUSH1 0x4 DUP2 ADD DUP8 SWAP1 MSTORE PUSH1 0x24 ADD PUSH2 0x6FD JUMP JUMPDEST PUSH1 0x0 DUP4 SWAP1 SUB PUSH2 0xC13 JUMPI PUSH1 0x40 MLOAD PUSH4 0x4F89E19B PUSH1 0xE1 SHL DUP2 MSTORE PUSH1 0x4 ADD PUSH1 0x40 MLOAD DUP1 SWAP2 SUB SWAP1 REVERT JUMPDEST DUP2 ISZERO DUP1 PUSH2 0xC1E JUMPI POP DUP1 ISZERO JUMPDEST ISZERO PUSH2 0xC3B JUMPI PUSH1 0x40 MLOAD PUSH3 0x57C037 PUSH1 0xE5 SHL DUP2 MSTORE PUSH1 0x4 ADD PUSH1 0x40 MLOAD DUP1 SWAP2 SUB SWAP1 REVERT JUMPDEST PUSH2 0xC44 DUP6 PUSH2 0x1828 JUMP JUMPDEST PUSH1 0x40 MLOAD DUP1 PUSH1 0xE0 ADD PUSH1 0x40 MSTORE DUP1 DUP7 DUP2 MSTORE PUSH1 0x20 ADD DUP6 DUP6 DUP1 DUP1 PUSH1 0x1F ADD PUSH1 0x20 DUP1 SWAP2 DIV MUL PUSH1 0x20 ADD PUSH1 0x40 MLOAD SWAP1 DUP2 ADD PUSH1 0x40 MSTORE DUP1 SWAP4 SWAP3 SWAP2 SWAP1 DUP2 DUP2 MSTORE PUSH1 0x20 ADD DUP4 DUP4 DUP1 DUP3 DUP5 CALLDATACOPY PUSH1 0x0 SWAP3 ADD DUP3 SWAP1 MSTORE POP SWAP4 DUP6 MSTORE POP POP POP PUSH1 0x20 DUP1 DUP4 ADD DUP7 SWAP1 MSTORE PUSH1 0x40 DUP1 DUP5 ADD DUP7 SWAP1 MSTORE PUSH1 0x1 PUSH1 0x1 PUSH1 0x40 SHL SUB TIMESTAMP AND PUSH1 0x60 DUP6 ADD DUP2 SWAP1 MSTORE PUSH1 0x80 DUP6 ADD MSTORE PUSH1 0x1 PUSH1 0xA0 SWAP1 SWAP5 ADD DUP5 SWAP1 MSTORE DUP11 DUP4 MSTORE DUP4 DUP3 MSTORE SWAP1 SWAP2 KECCAK256 DUP4 MLOAD DUP2 SSTORE SWAP1 DUP4 ADD MLOAD SWAP1 SWAP2 DUP3 ADD SWAP1 PUSH2 0xCDD SWAP1 DUP3 PUSH2 0x20AB JUMP JUMPDEST POP PUSH1 0x40 DUP3 DUP2 ADD MLOAD PUSH1 0x2 DUP1 DUP5 ADD SWAP2 SWAP1 SWAP2 SSTORE PUSH1 0x60 DUP5 ADD MLOAD PUSH1 0x3 DUP5 ADD SSTORE PUSH1 0x80 DUP5 ADD MLOAD PUSH1 0x4 SWAP1 SWAP4 ADD DUP1 SLOAD PUSH1 0xA0 DUP7 ADD MLOAD PUSH1 0xC0 SWAP1 SWAP7 ADD MLOAD ISZERO ISZERO PUSH1 0x1 PUSH1 0x80 SHL MUL PUSH1 0xFF PUSH1 0x80 SHL NOT PUSH1 0x1 PUSH1 0x1 PUSH1 0x40 SHL SUB SWAP8 DUP9 AND PUSH1 0x1 PUSH1 0x40 SHL MUL PUSH16 0xFFFFFFFFFFFFFFFFFFFFFFFFFFFFFFFF NOT SWAP1 SWAP4 AND SWAP8 SWAP1 SWAP7 AND SWAP7 SWAP1 SWAP7 OR OR SWAP4 SWAP1 SWAP4 AND SWAP4 SWAP1 SWAP4 OR SWAP1 SWAP2 SSTORE PUSH1 0x0 DUP9 DUP2 MSTORE PUSH1 0x20 DUP4 DUP2 MSTORE DUP3 DUP3 KECCAK256 DUP10 DUP4 MSTORE SWAP1 MSTORE KECCAK256 DUP1 SLOAD PUSH1 0xFF NOT AND PUSH1 0x1 DUP4 MUL OR SWAP1 SSTORE POP DUP4 DUP4 PUSH1 0x40 MLOAD PUSH2 0xD87 SWAP3 SWAP2 SWAP1 PUSH2 0x2169 JUMP JUMPDEST PUSH1 0x40 DUP1 MLOAD SWAP2 DUP3 SWAP1 SUB DUP3 KECCAK256 DUP5 DUP4 MSTORE NUMBER PUSH1 0x20 DUP5 ADD MSTORE SWAP2 DUP8 SWAP2 DUP10 SWAP2 PUSH32 0xAE5B6504EF785DB849AD82C4BEBE8D9E198B308F004FD84FF85F258B1A9A8445 SWAP2 ADD PUSH2 0xB9D JUMP JUMPDEST PUSH2 0xDCF PUSH2 0x17F7 JUMP JUMPDEST PUSH1 0x0 DUP6 DUP2 MSTORE PUSH1 0x1 PUSH1 0x20 MSTORE PUSH1 0x40 DUP2 KECCAK256 PUSH1 0x4 DUP2 ADD SLOAD SWAP1 SWAP2 PUSH1 0x1 PUSH1 0x1 PUSH1 0x40 SHL SUB SWAP1 SWAP2 AND SWAP1 SUB PUSH2 0xE11 JUMPI PUSH1 0x40 MLOAD PUSH4 0x37B0C22D PUSH1 0xE2 SHL DUP2 MSTORE PUSH1 0x4 DUP2 ADD DUP8 SWAP1 MSTORE PUSH1 0x24 ADD PUSH2 0x6FD JUMP JUMPDEST PUSH1 0x4 DUP2 ADD SLOAD PUSH1 0x1 PUSH1 0x80 SHL SWAP1 DIV PUSH1 0xFF AND PUSH2 0xE40 JUMPI PUSH1 0x40 MLOAD PUSH4 0xC678D9B5 PUSH1 0xE0 SHL DUP2 MSTORE PUSH1 0x4 DUP2 ADD DUP8 SWAP1 MSTORE PUSH1 0x24 ADD PUSH2 0x6FD JUMP JUMPDEST DUP2 PUSH2 0xE5D JUMPI PUSH1 0x40 MLOAD PUSH3 0x57C037 PUSH1 0xE5 SHL DUP2 MSTORE PUSH1 0x4 ADD PUSH1 0x40 MLOAD DUP1 SWAP2 SUB SWAP1 REVERT JUMPDEST PUSH1 0x0 DUP7 DUP2 MSTORE PUSH1 0x3 PUSH1 0x20 SWAP1 DUP2 MSTORE PUSH1 0x40 DUP1 DUP4 KECCAK256 DUP9 DUP5 MSTORE SWAP1 SWAP2 MSTORE SWAP1 KECCAK256 PUSH1 0x2 ADD SLOAD PUSH1 0xFF AND ISZERO PUSH2 0xEA8 JUMPI PUSH1 0x40 MLOAD PUSH1 0x1 PUSH3 0xA212D3 PUSH1 0xE0 SHL SUB NOT DUP2 MSTORE PUSH1 0x4 DUP2 ADD DUP8 SWAP1 MSTORE PUSH1 0x24 DUP2 ADD DUP7 SWAP1 MSTORE PUSH1 0x44 ADD PUSH2 0x6FD JUMP JUMPDEST PUSH2 0xEB1 DUP5 PUSH2 0x1828 JUMP JUMPDEST DUP1 SLOAD DUP5 EQ PUSH2 0xEDC JUMPI PUSH1 0x40 MLOAD PUSH4 0x519DEDFD PUSH1 0xE1 SHL DUP2 MSTORE PUSH1 0x4 DUP2 ADD DUP8 SWAP1 MSTORE PUSH1 0x24 DUP2 ADD DUP6 SWAP1 MSTORE PUSH1 0x44 ADD PUSH2 0x6FD JUMP JUMPDEST PUSH2 0xEE5 DUP4 PUSH2 0x18D3 JUMP JUMPDEST PUSH1 0x40 DUP1 MLOAD PUSH1 0x80 DUP2 ADD DUP3 MSTORE DUP6 DUP2 MSTORE PUSH1 0x20 DUP1 DUP3 ADD DUP7 DUP2 MSTORE PUSH1 0x1 DUP4 DUP6 ADD DUP2 DUP2 MSTORE PUSH1 0x0 PUSH1 0x60 DUP7 ADD DUP2 DUP2 MSTORE DUP14 DUP3 MSTORE PUSH1 0x3 DUP7 MSTORE DUP8 DUP3 KECCAK256 DUP14 DUP4 MSTORE DUP7 MSTORE DUP8 DUP3 KECCAK256 SWAP7 MLOAD DUP8 SSTORE SWAP4 MLOAD DUP7 DUP5 ADD SSTORE SWAP1 MLOAD PUSH1 0x2 SWAP6 DUP7 ADD DUP1 SLOAD SWAP5 MLOAD ISZERO ISZERO PUSH2 0x100 MUL PUSH2 0xFF00 NOT SWAP3 ISZERO ISZERO SWAP3 SWAP1 SWAP3 AND PUSH2 0xFFFF NOT SWAP1 SWAP6 AND SWAP5 SWAP1 SWAP5 OR OR SWAP1 SWAP3 SSTORE DUP11 DUP3 MSTORE SWAP3 DUP3 MSTORE DUP4 DUP2 KECCAK256 DUP8 DUP3 MSTORE SWAP1 SWAP2 MSTORE SWAP2 SWAP1 SWAP2 KECCAK256 DUP1 SLOAD PUSH1 0xFF NOT AND DUP3 DUP1 MUL OR SWAP1 SSTORE POP PUSH1 0x3 DUP2 ADD DUP3 SWAP1 SSTORE PUSH1 0x4 DUP2 ADD DUP1 SLOAD PUSH8 0xFFFFFFFFFFFFFFFF PUSH1 0x40 SHL NOT AND PUSH1 0x1 PUSH1 0x40 SHL TIMESTAMP PUSH1 0x1 PUSH1 0x1 PUSH1 0x40 SHL SUB AND MUL OR SWAP1 SSTORE PUSH1 0x40 DUP1 MLOAD DUP5 DUP2 MSTORE PUSH1 0x20 DUP2 ADD DUP5 SWAP1 MSTORE DUP6 SWAP2 DUP8 SWAP2 DUP10 SWAP2 PUSH32 0x53CBB6A632FB670410D72986A2C42138AC0F8786DF7F2B61EBF6B14618CAEAB1 SWAP2 ADD PUSH2 0xB9D JUMP JUMPDEST PUSH1 0x0 DUP1 MLOAD PUSH1 0x20 PUSH2 0x21F2 DUP4 CODECOPY DUP2 MLOAD SWAP2 MSTORE PUSH2 0xFF4 DUP2 PUSH2 0x147C JUMP JUMPDEST PUSH2 0x7C4 PUSH2 0x1964 JUMP JUMPDEST PUSH1 0x0 SWAP2 DUP3 MSTORE PUSH1 0x0 DUP1 MLOAD PUSH1 0x20 PUSH2 0x2212 DUP4 CODECOPY DUP2 MLOAD SWAP2 MSTORE PUSH1 0x20 SWAP1 DUP2 MSTORE PUSH1 0x40 DUP1 DUP5 KECCAK256 PUSH1 0x1 PUSH1 0x1 PUSH1 0xA0 SHL SUB SWAP4 SWAP1 SWAP4 AND DUP5 MSTORE SWAP2 SWAP1 MSTORE SWAP1 KECCAK256 SLOAD PUSH1 0xFF AND SWAP1 JUMP JUMPDEST PUSH1 0x40 DUP1 MLOAD PUSH1 0xE0 DUP1 DUP3 ADD DUP4 MSTORE PUSH1 0x0 DUP1 DUP4 MSTORE PUSH1 0x60 PUSH1 0x20 DUP1 DUP6 ADD DUP3 SWAP1 MSTORE DUP5 DUP7 ADD DUP4 SWAP1 MSTORE SWAP1 DUP5 ADD DUP3 SWAP1 MSTORE PUSH1 0x80 DUP5 ADD DUP3 SWAP1 MSTORE PUSH1 0xA0 DUP5 ADD DUP3 SWAP1 MSTORE PUSH1 0xC0 DUP5 ADD DUP3 SWAP1 MSTORE DUP6 DUP3 MSTORE PUSH1 0x1 DUP1 DUP3 MSTORE DUP6 DUP4 KECCAK256 DUP7 MLOAD SWAP5 DUP6 ADD SWAP1 SWAP7 MSTORE DUP6 SLOAD DUP5 MSTORE DUP6 ADD DUP1 SLOAD SWAP5 SWAP6 SWAP3 SWAP5 SWAP2 DUP5 ADD SWAP2 PUSH2 0x109B SWAP1 PUSH2 0x2023 JUMP JUMPDEST DUP1 PUSH1 0x1F ADD PUSH1 0x20 DUP1 SWAP2 DIV MUL PUSH1 0x20 ADD PUSH1 0x40 MLOAD SWAP1 DUP2 ADD PUSH1 0x40 MSTORE DUP1 SWAP3 SWAP2 SWAP1 DUP2 DUP2 MSTORE PUSH1 0x20 ADD DUP3 DUP1 SLOAD PUSH2 0x10C7 SWAP1 PUSH2 0x2023 JUMP JUMPDEST DUP1 ISZERO PUSH2 0x1114 JUMPI DUP1 PUSH1 0x1F LT PUSH2 0x10E9 JUMPI PUSH2 0x100 DUP1 DUP4 SLOAD DIV MUL DUP4 MSTORE SWAP2 PUSH1 0x20 ADD SWAP2 PUSH2 0x1114 JUMP JUMPDEST DUP3 ADD SWAP2 SWAP1 PUSH1 0x0 MSTORE PUSH1 0x20 PUSH1 0x0 KECCAK256 SWAP1 JUMPDEST DUP2 SLOAD DUP2 MSTORE SWAP1 PUSH1 0x1 ADD SWAP1 PUSH1 0x20 ADD DUP1 DUP4 GT PUSH2 0x10F7 JUMPI DUP3 SWAP1 SUB PUSH1 0x1F AND DUP3 ADD SWAP2 JUMPDEST POP POP POP SWAP2 DUP4 MSTORE POP POP PUSH1 0x2 DUP3 ADD SLOAD PUSH1 0x20 DUP3 ADD MSTORE PUSH1 0x3 DUP3 ADD SLOAD PUSH1 0x40 DUP3 ADD MSTORE PUSH1 0x4 SWAP1 SWAP2 ADD SLOAD PUSH1 0x1 PUSH1 0x1 PUSH1 0x40 SHL SUB DUP1 DUP3 AND PUSH1 0x60 DUP5 ADD MSTORE PUSH1 0x1 PUSH1 0x40 SHL DUP3 DIV DUP2 AND PUSH1 0x80 DUP1 DUP6 ADD SWAP2 SWAP1 SWAP2 MSTORE PUSH1 0x1 PUSH1 0x80 SHL SWAP1 SWAP3 DIV PUSH1 0xFF AND ISZERO ISZERO PUSH1 0xA0 SWAP1 SWAP4 ADD SWAP3 SWAP1 SWAP3 MSTORE DUP3 ADD MLOAD SWAP2 SWAP3 POP AND PUSH1 0x0 SUB PUSH2 0x5C3 JUMPI PUSH1 0x40 MLOAD PUSH4 0x37B0C22D PUSH1 0xE2 SHL DUP2 MSTORE PUSH1 0x4 DUP2 ADD DUP5 SWAP1 MSTORE PUSH1 0x24 ADD PUSH2 0x6FD JUMP JUMPDEST PUSH2 0x11A1 DUP3 PUSH2 0x728 JUMP JUMPDEST PUSH2 0x11AA DUP2 PUSH2 0x147C JUMP JUMPDEST PUSH2 0x766 DUP4 DUP4 PUSH2 0x1532 JUMP JUMPDEST PUSH2 0x11BC PUSH2 0x17F7 JUMP JUMPDEST PUSH1 0x0 DUP5 DUP2 MSTORE PUSH1 0x1 PUSH1 0x20 MSTORE PUSH1 0x40 DUP2 KECCAK256 PUSH1 0x4 DUP2 ADD SLOAD SWAP1 SWAP2 PUSH1 0x1 PUSH1 0x1 PUSH1 0x40 SHL SUB SWAP1 SWAP2 AND SWAP1 SUB PUSH2 0x11FE JUMPI PUSH1 0x40 MLOAD PUSH4 0x37B0C22D PUSH1 0xE2 SHL DUP2 MSTORE PUSH1 0x4 DUP2 ADD DUP7 SWAP1 MSTORE PUSH1 0x24 ADD PUSH2 0x6FD JUMP JUMPDEST PUSH1 0x4 DUP2 ADD SLOAD PUSH1 0x1 PUSH1 0x80 SHL SWAP1 DIV PUSH1 0xFF AND PUSH2 0x122D JUMPI PUSH1 0x40 MLOAD PUSH4 0xC678D9B5 PUSH1 0xE0 SHL DUP2 MSTORE PUSH1 0x4 DUP2 ADD DUP7 SWAP1 MSTORE PUSH1 0x24 ADD PUSH2 0x6FD JUMP JUMPDEST DUP2 PUSH2 0x124A JUMPI PUSH1 0x40 MLOAD PUSH3 0x57C037 PUSH1 0xE5 SHL DUP2 MSTORE PUSH1 0x4 ADD PUSH1 0x40 MLOAD DUP1 SWAP2 SUB SWAP1 REVERT JUMPDEST PUSH2 0x1253 DUP5 PUSH2 0x1828 JUMP JUMPDEST DUP1 SLOAD DUP5 EQ PUSH2 0x127E JUMPI PUSH1 0x40 MLOAD PUSH4 0x519DEDFD PUSH1 0xE1 SHL DUP2 MSTORE PUSH1 0x4 DUP2 ADD DUP7 SWAP1 MSTORE PUSH1 0x24 DUP2 ADD DUP6 SWAP1 MSTORE PUSH1 0x44 ADD PUSH2 0x6FD JUMP JUMPDEST DUP1 SLOAD DUP4 SWAP1 SUB PUSH2 0x12A3 JUMPI PUSH1 0x40 MLOAD PUSH4 0x4913E51D PUSH1 0xE1 SHL DUP2 MSTORE PUSH1 0x4 DUP2 ADD DUP7 SWAP1 MSTORE PUSH1 0x24 ADD PUSH2 0x6FD JUMP JUMPDEST PUSH1 0x0 DUP6 DUP2 MSTORE PUSH1 0x2 PUSH1 0x20 SWAP1 DUP2 MSTORE PUSH1 0x40 DUP1 DUP4 KECCAK256 DUP7 DUP5 MSTORE SWAP1 SWAP2 MSTORE SWAP1 KECCAK256 SLOAD PUSH1 0xFF AND PUSH1 0x1 DUP2 PUSH1 0x3 DUP2 GT ISZERO PUSH2 0x12D4 JUMPI PUSH2 0x12D4 PUSH2 0x1C59 JUMP JUMPDEST EQ ISZERO DUP1 ISZERO PUSH2 0x12F4 JUMPI POP PUSH1 0x2 DUP2 PUSH1 0x3 DUP2 GT ISZERO PUSH2 0x12F1 JUMPI PUSH2 0x12F1 PUSH2 0x1C59 JUMP JUMPDEST EQ ISZERO JUMPDEST ISZERO PUSH2 0x131C JUMPI PUSH1 0x40 MLOAD PUSH4 0xD2B32A5F PUSH1 0xE0 SHL DUP2 MSTORE PUSH1 0x4 DUP2 ADD DUP8 SWAP1 MSTORE PUSH1 0x24 DUP2 ADD DUP6 SWAP1 MSTORE PUSH1 0x44 ADD PUSH2 0x6FD JUMP JUMPDEST PUSH1 0x0 DUP7 DUP2 MSTORE PUSH1 0x2 PUSH1 0x20 SWAP1 DUP2 MSTORE PUSH1 0x40 DUP1 DUP4 KECCAK256 DUP8 DUP5 MSTORE DUP3 MSTORE SWAP2 DUP3 SWAP1 KECCAK256 DUP1 SLOAD PUSH1 0x3 PUSH1 0xFF NOT SWAP1 SWAP2 AND DUP2 OR SWAP1 SWAP2 SSTORE DUP5 ADD DUP6 SWAP1 SSTORE PUSH1 0x4 DUP5 ADD DUP1 SLOAD PUSH8 0xFFFFFFFFFFFFFFFF PUSH1 0x40 SHL NOT AND PUSH1 0x1 PUSH1 0x40 SHL TIMESTAMP PUSH1 0x1 PUSH1 0x1 PUSH1 0x40 SHL SUB AND MUL OR SWAP1 SSTORE SWAP1 MLOAD DUP5 DUP2 MSTORE DUP7 SWAP2 DUP7 SWAP2 DUP10 SWAP2 PUSH32 0x2FD570B64712D07A1A97099FC0F339A5DA9AFC9D53A2E0FCBB9BA4AFA8854FB0 SWAP2 ADD PUSH2 0xB9D JUMP JUMPDEST PUSH1 0x1 PUSH1 0x20 DUP2 SWAP1 MSTORE PUSH1 0x0 SWAP2 DUP3 MSTORE PUSH1 0x40 SWAP1 SWAP2 KECCAK256 DUP1 SLOAD SWAP2 DUP2 ADD DUP1 SLOAD PUSH2 0x13C5 SWAP1 PUSH2 0x2023 JUMP JUMPDEST DUP1 PUSH1 0x1F ADD PUSH1 0x20 DUP1 SWAP2 DIV MUL PUSH1 0x20 ADD PUSH1 0x40 MLOAD SWAP1 DUP2 ADD PUSH1 0x40 MSTORE DUP1 SWAP3 SWAP2 SWAP1 DUP2 DUP2 MSTORE PUSH1 0x20 ADD DUP3 DUP1 SLOAD PUSH2 0x13F1 SWAP1 PUSH2 0x2023 JUMP JUMPDEST DUP1 ISZERO PUSH2 0x143E JUMPI DUP1 PUSH1 0x1F LT PUSH2 0x1413 JUMPI PUSH2 0x100 DUP1 DUP4 SLOAD DIV MUL DUP4 MSTORE SWAP2 PUSH1 0x20 ADD SWAP2 PUSH2 0x143E JUMP JUMPDEST DUP3 ADD SWAP2 SWAP1 PUSH1 0x0 MSTORE PUSH1 0x20 PUSH1 0x0 KECCAK256 SWAP1 JUMPDEST DUP2 SLOAD DUP2 MSTORE SWAP1 PUSH1 0x1 ADD SWAP1 PUSH1 0x20 ADD DUP1 DUP4 GT PUSH2 0x1421 JUMPI DUP3 SWAP1 SUB PUSH1 0x1F AND DUP3 ADD SWAP2 JUMPDEST POP POP POP PUSH1 0x2 DUP5 ADD SLOAD PUSH1 0x3 DUP6 ADD SLOAD PUSH1 0x4 SWAP1 SWAP6 ADD SLOAD SWAP4 SWAP5 SWAP1 SWAP4 SWAP1 SWAP3 POP PUSH1 0x1 PUSH1 0x1 PUSH1 0x40 SHL SUB DUP1 DUP3 AND SWAP3 POP PUSH1 0x1 PUSH1 0x40 SHL DUP3 DIV AND SWAP1 PUSH1 0xFF PUSH1 0x1 PUSH1 0x80 SHL SWAP1 SWAP2 DIV AND DUP8 JUMP JUMPDEST PUSH2 0x7C4 DUP2 CALLER PUSH2 0x19AD JUMP JUMPDEST PUSH1 0x0 PUSH1 0x0 DUP1 MLOAD PUSH1 0x20 PUSH2 0x2212 DUP4 CODECOPY DUP2 MLOAD SWAP2 MSTORE PUSH2 0x14A1 DUP5 DUP5 PUSH2 0xFFC JUMP JUMPDEST PUSH2 0x1521 JUMPI PUSH1 0x0 DUP5 DUP2 MSTORE PUSH1 0x20 DUP3 DUP2 MSTORE PUSH1 0x40 DUP1 DUP4 KECCAK256 PUSH1 0x1 PUSH1 0x1 PUSH1 0xA0 SHL SUB DUP8 AND DUP5 MSTORE SWAP1 SWAP2 MSTORE SWAP1 KECCAK256 DUP1 SLOAD PUSH1 0xFF NOT AND PUSH1 0x1 OR SWAP1 SSTORE PUSH2 0x14D7 CALLER SWAP1 JUMP JUMPDEST PUSH1 0x1 PUSH1 0x1 PUSH1 0xA0 SHL SUB AND DUP4 PUSH1 0x1 PUSH1 0x1 PUSH1 0xA0 SHL SUB AND DUP6 PUSH32 0x2F8788117E7EFF1D82E926EC794901D17C78024A50270940304540A733656F0D PUSH1 0x40 MLOAD PUSH1 0x40 MLOAD DUP1 SWAP2 SUB SWAP1 LOG4 PUSH1 0x1 SWAP2 POP POP PUSH2 0x5C3 JUMP JUMPDEST PUSH1 0x0 SWAP2 POP POP PUSH2 0x5C3 JUMP JUMPDEST POP SWAP3 SWAP2 POP POP JUMP JUMPDEST PUSH1 0x0 PUSH1 0x0 DUP1 MLOAD PUSH1 0x20 PUSH2 0x2212 DUP4 CODECOPY DUP2 MLOAD SWAP2 MSTORE PUSH2 0x154D DUP5 DUP5 PUSH2 0xFFC JUMP JUMPDEST ISZERO PUSH2 0x1521 JUMPI PUSH1 0x0 DUP5 DUP2 MSTORE PUSH1 0x20 DUP3 DUP2 MSTORE PUSH1 0x40 DUP1 DUP4 KECCAK256 PUSH1 0x1 PUSH1 0x1 PUSH1 0xA0 SHL SUB DUP8 AND DUP1 DUP6 MSTORE SWAP3 MSTORE DUP1 DUP4 KECCAK256 DUP1 SLOAD PUSH1 0xFF NOT AND SWAP1 SSTORE MLOAD CALLER SWAP3 DUP8 SWAP2 PUSH32 0xF6391F5C32D9C69D2A47EA670B442974B53935D1EDC7FD64EB21E047A839171B SWAP2 SWAP1 LOG4 PUSH1 0x1 SWAP2 POP POP PUSH2 0x5C3 JUMP JUMPDEST PUSH2 0x15B6 PUSH2 0x19E6 JUMP JUMPDEST PUSH1 0x0 DUP1 MLOAD PUSH1 0x20 PUSH2 0x2232 DUP4 CODECOPY DUP2 MLOAD SWAP2 MSTORE DUP1 SLOAD PUSH1 0xFF NOT AND DUP2 SSTORE PUSH32 0x5DB9EE0A495BF2E6FF9C91A7834C1BA4FDD244A5E8AA4E537BD38AEAE4B073AA CALLER JUMPDEST PUSH1 0x40 MLOAD PUSH1 0x1 PUSH1 0x1 PUSH1 0xA0 SHL SUB SWAP1 SWAP2 AND DUP2 MSTORE PUSH1 0x20 ADD PUSH1 0x40 MLOAD DUP1 SWAP2 SUB SWAP1 LOG1 POP JUMP JUMPDEST PUSH1 0x0 DUP1 PUSH32 0xF0C57E16840DF040F15088DC2F81FE391C3923BEC73E23A9662EFC9C229C6A00 PUSH2 0x5C3 JUMP JUMPDEST PUSH2 0x163F PUSH2 0x1A16 JUMP JUMPDEST JUMP JUMPDEST ADDRESS PUSH1 0x1 PUSH1 0x1 PUSH1 0xA0 SHL SUB PUSH32 0x0 AND EQ DUP1 PUSH2 0x16C8 JUMPI POP PUSH32 0x0 PUSH1 0x1 PUSH1 0x1 PUSH1 0xA0 SHL SUB AND PUSH2 0x16BC PUSH1 0x0 DUP1 MLOAD PUSH1 0x20 PUSH2 0x21D2 DUP4 CODECOPY DUP2 MLOAD SWAP2 MSTORE SLOAD PUSH1 0x1 PUSH1 0x1 PUSH1 0xA0 SHL SUB AND SWAP1 JUMP JUMPDEST PUSH1 0x1 PUSH1 0x1 PUSH1 0xA0 SHL SUB AND EQ ISZERO JUMPDEST ISZERO PUSH2 0x163F JUMPI PUSH1 0x40 MLOAD PUSH4 0x703E46DD PUSH1 0xE1 SHL DUP2 MSTORE PUSH1 0x4 ADD PUSH1 0x40 MLOAD DUP1 SWAP2 SUB SWAP1 REVERT JUMPDEST PUSH1 0x0 PUSH2 0x95F DUP2 PUSH2 0x147C JUMP JUMPDEST DUP2 PUSH1 0x1 PUSH1 0x1 PUSH1 0xA0 SHL SUB AND PUSH4 0x52D1902D PUSH1 0x40 MLOAD DUP2 PUSH4 0xFFFFFFFF AND PUSH1 0xE0 SHL DUP2 MSTORE PUSH1 0x4 ADD PUSH1 0x20 PUSH1 0x40 MLOAD DUP1 DUP4 SUB DUP2 DUP7 GAS STATICCALL SWAP3 POP POP POP DUP1 ISZERO PUSH2 0x174B JUMPI POP PUSH1 0x40 DUP1 MLOAD PUSH1 0x1F RETURNDATASIZE SWAP1 DUP2 ADD PUSH1 0x1F NOT AND DUP3 ADD SWAP1 SWAP3 MSTORE PUSH2 0x1748 SWAP2 DUP2 ADD SWAP1 PUSH2 0x2179 JUMP JUMPDEST PUSH1 0x1 JUMPDEST PUSH2 0x1773 JUMPI PUSH1 0x40 MLOAD PUSH4 0x4C9C8CE3 PUSH1 0xE0 SHL DUP2 MSTORE PUSH1 0x1 PUSH1 0x1 PUSH1 0xA0 SHL SUB DUP4 AND PUSH1 0x4 DUP3 ADD MSTORE PUSH1 0x24 ADD PUSH2 0x6FD JUMP JUMPDEST PUSH1 0x0 DUP1 MLOAD PUSH1 0x20 PUSH2 0x21D2 DUP4 CODECOPY DUP2 MLOAD SWAP2 MSTORE DUP2 EQ PUSH2 0x17A4 JUMPI PUSH1 0x40 MLOAD PUSH4 0x2A875269 PUSH1 0xE2 SHL DUP2 MSTORE PUSH1 0x4 DUP2 ADD DUP3 SWAP1 MSTORE PUSH1 0x24 ADD PUSH2 0x6FD JUMP JUMPDEST PUSH2 0x79F DUP4 DUP4 PUSH2 0x1A3B JUMP JUMPDEST ADDRESS PUSH1 0x1 PUSH1 0x1 PUSH1 0xA0 SHL SUB PUSH32 0x0 AND EQ PUSH2 0x163F JUMPI PUSH1 0x40 MLOAD PUSH4 0x703E46DD PUSH1 0xE1 SHL DUP2 MSTORE PUSH1 0x4 ADD PUSH1 0x40 MLOAD DUP1 SWAP2 SUB SWAP1 REVERT JUMPDEST PUSH1 0x0 DUP1 MLOAD PUSH1 0x20 PUSH2 0x2232 DUP4 CODECOPY DUP2 MLOAD SWAP2 MSTORE SLOAD PUSH1 0xFF AND ISZERO PUSH2 0x163F JUMPI PUSH1 0x40 MLOAD PUSH4 0xD93C0665 PUSH1 0xE0 SHL DUP2 MSTORE PUSH1 0x4 ADD PUSH1 0x40 MLOAD DUP1 SWAP2 SUB SWAP1 REVERT JUMPDEST PUSH2 0x1831 DUP2 PUSH2 0x18D3 JUMP JUMPDEST PUSH1 0x0 DUP1 SLOAD PUSH1 0x40 MLOAD PUSH4 0x478C0AD9 PUSH1 0xE1 SHL DUP2 MSTORE PUSH1 0x4 DUP2 ADD DUP5 SWAP1 MSTORE PUSH1 0x1 PUSH1 0x1 PUSH1 0xA0 SHL SUB SWAP1 SWAP2 AND SWAP1 PUSH4 0x8F1815B2 SWAP1 PUSH1 0x24 ADD PUSH1 0x20 PUSH1 0x40 MLOAD DUP1 DUP4 SUB DUP2 DUP7 GAS STATICCALL ISZERO DUP1 ISZERO PUSH2 0x187B JUMPI RETURNDATASIZE PUSH1 0x0 DUP1 RETURNDATACOPY RETURNDATASIZE PUSH1 0x0 REVERT JUMPDEST POP POP POP POP PUSH1 0x40 MLOAD RETURNDATASIZE PUSH1 0x1F NOT PUSH1 0x1F DUP3 ADD AND DUP3 ADD DUP1 PUSH1 0x40 MSTORE POP DUP2 ADD SWAP1 PUSH2 0x189F SWAP2 SWAP1 PUSH2 0x2192 JUMP JUMPDEST SWAP1 POP PUSH1 0x1 PUSH1 0x1 PUSH1 0xA0 SHL SUB DUP2 AND CALLER EQ PUSH2 0x95F JUMPI PUSH1 0x40 MLOAD PUSH4 0xFB68A6CD PUSH1 0xE0 SHL DUP2 MSTORE PUSH1 0x4 DUP2 ADD DUP4 SWAP1 MSTORE CALLER PUSH1 0x24 DUP3 ADD MSTORE PUSH1 0x44 ADD PUSH2 0x6FD JUMP JUMPDEST PUSH1 0x0 DUP1 SLOAD PUSH1 0x40 MLOAD PUSH4 0x170DA407 PUSH1 0xE2 SHL DUP2 MSTORE PUSH1 0x4 DUP2 ADD DUP5 SWAP1 MSTORE PUSH1 0x1 PUSH1 0x1 PUSH1 0xA0 SHL SUB SWAP1 SWAP2 AND SWAP1 PUSH4 0x5C36901C SWAP1 PUSH1 0x24 ADD PUSH1 0x20 PUSH1 0x40 MLOAD DUP1 DUP4 SUB DUP2 DUP7 GAS STATICCALL ISZERO DUP1 ISZERO PUSH2 0x191D JUMPI RETURNDATASIZE PUSH1 0x0 DUP1 RETURNDATACOPY RETURNDATASIZE PUSH1 0x0 REVERT JUMPDEST POP POP POP POP PUSH1 0x40 MLOAD RETURNDATASIZE PUSH1 0x1F NOT PUSH1 0x1F DUP3 ADD AND DUP3 ADD DUP1 PUSH1 0x40 MSTORE POP DUP2 ADD SWAP1 PUSH2 0x1941 SWAP2 SWAP1 PUSH2 0x21AF JUMP JUMPDEST SWAP1 POP DUP1 PUSH2 0x95F JUMPI PUSH1 0x40 MLOAD PUSH4 0x94D205AF PUSH1 0xE0 SHL DUP2 MSTORE PUSH1 0x4 DUP2 ADD DUP4 SWAP1 MSTORE PUSH1 0x24 ADD PUSH2 0x6FD JUMP JUMPDEST PUSH2 0x196C PUSH2 0x17F7 JUMP JUMPDEST PUSH1 0x0 DUP1 MLOAD PUSH1 0x20 PUSH2 0x2232 DUP4 CODECOPY DUP2 MLOAD SWAP2 MSTORE DUP1 SLOAD PUSH1 0xFF NOT AND PUSH1 0x1 OR DUP2 SSTORE PUSH32 0x62E78CEA01BEE320CD4E420270B5EA74000D11B0C9F74754EBDBFC544B05A258 CALLER PUSH2 0x15F0 JUMP JUMPDEST PUSH2 0x19B7 DUP3 DUP3 PUSH2 0xFFC JUMP JUMPDEST PUSH2 0x95F JUMPI PUSH1 0x40 MLOAD PUSH4 0xE2517D3F PUSH1 0xE0 SHL DUP2 MSTORE PUSH1 0x1 PUSH1 0x1 PUSH1 0xA0 SHL SUB DUP3 AND PUSH1 0x4 DUP3 ADD MSTORE PUSH1 0x24 DUP2 ADD DUP4 SWAP1 MSTORE PUSH1 0x44 ADD PUSH2 0x6FD JUMP JUMPDEST PUSH1 0x0 DUP1 MLOAD PUSH1 0x20 PUSH2 0x2232 DUP4 CODECOPY DUP2 MLOAD SWAP2 MSTORE SLOAD PUSH1 0xFF AND PUSH2 0x163F JUMPI PUSH1 0x40 MLOAD PUSH4 0x8DFC202B PUSH1 0xE0 SHL DUP2 MSTORE PUSH1 0x4 ADD PUSH1 0x40 MLOAD DUP1 SWAP2 SUB SWAP1 REVERT JUMPDEST PUSH2 0x1A1E PUSH2 0x1A91 JUMP JUMPDEST PUSH2 0x163F JUMPI PUSH1 0x40 MLOAD PUSH4 0x1AFCD79F PUSH1 0xE3 SHL DUP2 MSTORE PUSH1 0x4 ADD PUSH1 0x40 MLOAD DUP1 SWAP2 SUB SWAP1 REVERT JUMPDEST PUSH2 0x1A44 DUP3 PUSH2 0x1AAB JUMP JUMPDEST PUSH1 0x40 MLOAD PUSH1 0x1 PUSH1 0x1 PUSH1 0xA0 SHL SUB DUP4 AND SWAP1 PUSH32 0xBC7CD75A20EE27FD9ADEBAB32041F755214DBC6BFFA90CC0225B39DA2E5C2D3B SWAP1 PUSH1 0x0 SWAP1 LOG2 DUP1 MLOAD ISZERO PUSH2 0x1A89 JUMPI PUSH2 0x79F DUP3 DUP3 PUSH2 0x1B10 JUMP JUMPDEST PUSH2 0x95F PUSH2 0x1BAC JUMP JUMPDEST PUSH1 0x0 PUSH2 0x1A9B PUSH2 0x160E JUMP JUMPDEST SLOAD PUSH1 0x1 PUSH1 0x40 SHL SWAP1 DIV PUSH1 0xFF AND SWAP2 SWAP1 POP JUMP JUMPDEST DUP1 PUSH1 0x1 PUSH1 0x1 PUSH1 0xA0 SHL SUB AND EXTCODESIZE PUSH1 0x0 SUB PUSH2 0x1AE1 JUMPI PUSH1 0x40 MLOAD PUSH4 0x4C9C8CE3 PUSH1 0xE0 SHL DUP2 MSTORE PUSH1 0x1 PUSH1 0x1 PUSH1 0xA0 SHL SUB DUP3 AND PUSH1 0x4 DUP3 ADD MSTORE PUSH1 0x24 ADD PUSH2 0x6FD JUMP JUMPDEST PUSH1 0x0 DUP1 MLOAD PUSH1 0x20 PUSH2 0x21D2 DUP4 CODECOPY DUP2 MLOAD SWAP2 MSTORE DUP1 SLOAD PUSH1 0x1 PUSH1 0x1 PUSH1 0xA0 SHL SUB NOT AND PUSH1 0x1 PUSH1 0x1 PUSH1 0xA0 SHL SUB SWAP3 SWAP1 SWAP3 AND SWAP2 SWAP1 SWAP2 OR SWAP1 SSTORE JUMP JUMPDEST PUSH1 0x60 PUSH1 0x0 PUSH2 0x1B1E DUP5 DUP5 PUSH2 0x1BCB JUMP JUMPDEST SWAP1 POP DUP1 DUP1 ISZERO PUSH2 0x1B41 JUMPI POP PUSH1 0x0 RETURNDATASIZE GT DUP1 PUSH2 0x1B41 JUMPI POP PUSH1 0x0 DUP5 PUSH1 0x1 PUSH1 0x1 PUSH1 0xA0 SHL SUB AND EXTCODESIZE GT JUMPDEST ISZERO PUSH2 0x1B56 JUMPI PUSH2 0x1B4E PUSH2 0x1BE0 JUMP JUMPDEST SWAP2 POP POP PUSH2 0x5C3 JUMP JUMPDEST DUP1 ISZERO PUSH2 0x1B80 JUMPI PUSH1 0x40 MLOAD PUSH4 0x9996B315 PUSH1 0xE0 SHL DUP2 MSTORE PUSH1 0x1 PUSH1 0x1 PUSH1 0xA0 SHL SUB DUP6 AND PUSH1 0x4 DUP3 ADD MSTORE PUSH1 0x24 ADD PUSH2 0x6FD JUMP JUMPDEST RETURNDATASIZE ISZERO PUSH2 0x1B93 JUMPI PUSH2 0x1B8E PUSH2 0x1BFA JUMP JUMPDEST PUSH2 0x152B JUMP JUMPDEST PUSH1 0x40 MLOAD PUSH4 0xD6BDA275 PUSH1 0xE0 SHL DUP2 MSTORE PUSH1 0x4 ADD PUSH1 0x40 MLOAD DUP1 SWAP2 SUB SWAP1 REVERT JUMPDEST CALLVALUE ISZERO PUSH2 0x163F JUMPI PUSH1 0x40 MLOAD PUSH4 0xB398979F PUSH1 0xE0 SHL DUP2 MSTORE PUSH1 0x4 ADD PUSH1 0x40 MLOAD DUP1 SWAP2 SUB SWAP1 REVERT JUMPDEST PUSH1 0x0 DUP1 PUSH1 0x0 DUP4 MLOAD PUSH1 0x20 DUP6 ADD DUP7 GAS DELEGATECALL SWAP4 SWAP3 POP POP POP JUMP JUMPDEST PUSH1 0x40 MLOAD RETURNDATASIZE DUP2 MSTORE RETURNDATASIZE PUSH1 0x0 PUSH1 0x20 DUP4 ADD RETURNDATACOPY RETURNDATASIZE PUSH1 0x20 ADD DUP2 ADD PUSH1 0x40 MSTORE SWAP1 JUMP JUMPDEST PUSH1 0x40 MLOAD RETURNDATASIZE PUSH1 0x0 DUP3 RETURNDATACOPY RETURNDATASIZE DUP2 REVERT JUMPDEST PUSH1 0x0 PUSH1 0x20 DUP3 DUP5 SUB SLT ISZERO PUSH2 0x1C18 JUMPI PUSH1 0x0 DUP1 REVERT JUMPDEST DUP2 CALLDATALOAD PUSH1 0x1 PUSH1 0x1 PUSH1 0xE0 SHL SUB NOT DUP2 AND DUP2 EQ PUSH2 0x1C30 JUMPI PUSH1 0x0 DUP1 REVERT JUMPDEST SWAP4 SWAP3 POP POP POP JUMP JUMPDEST PUSH1 0x0 DUP1 PUSH1 0x40 DUP4 DUP6 SUB SLT ISZERO PUSH2 0x1C4A JUMPI PUSH1 0x0 DUP1 REVERT JUMPDEST POP POP DUP1 CALLDATALOAD SWAP3 PUSH1 0x20 SWAP1 SWAP2 ADD CALLDATALOAD SWAP2 POP JUMP JUMPDEST PUSH4 0x4E487B71 PUSH1 0xE0 SHL PUSH1 0x0 MSTORE PUSH1 0x21 PUSH1 0x4 MSTORE PUSH1 0x24 PUSH1 0x0 REVERT JUMPDEST PUSH1 0x20 DUP2 ADD PUSH1 0x4 DUP4 LT PUSH2 0x1C91 JUMPI PUSH4 0x4E487B71 PUSH1 0xE0 SHL PUSH1 0x0 MSTORE PUSH1 0x21 PUSH1 0x4 MSTORE PUSH1 0x24 PUSH1 0x0 REVERT JUMPDEST SWAP2 SWAP1 MSTORE SWAP1 JUMP JUMPDEST PUSH1 0x0 PUSH1 0x20 DUP3 DUP5 SUB SLT ISZERO PUSH2 0x1CA9 JUMPI PUSH1 0x0 DUP1 REVERT JUMPDEST POP CALLDATALOAD SWAP2 SWAP1 POP JUMP JUMPDEST PUSH1 0x1 PUSH1 0x1 PUSH1 0xA0 SHL SUB DUP2 AND DUP2 EQ PUSH2 0x7C4 JUMPI PUSH1 0x0 DUP1 REVERT JUMPDEST PUSH1 0x0 DUP1 PUSH1 0x40 DUP4 DUP6 SUB SLT ISZERO PUSH2 0x1CD8 JUMPI PUSH1 0x0 DUP1 REVERT JUMPDEST DUP3 CALLDATALOAD SWAP2 POP PUSH1 0x20 DUP4 ADD CALLDATALOAD PUSH2 0x1CEA DUP2 PUSH2 0x1CB0 JUMP JUMPDEST DUP1 SWAP2 POP POP SWAP3 POP SWAP3 SWAP1 POP JUMP JUMPDEST PUSH1 0x0 DUP1 PUSH1 0x40 DUP4 DUP6 SUB SLT ISZERO PUSH2 0x1D08 JUMPI PUSH1 0x0 DUP1 REVERT JUMPDEST DUP3 CALLDATALOAD PUSH2 0x1D13 DUP2 PUSH2 0x1CB0 JUMP JUMPDEST SWAP2 POP PUSH1 0x20 DUP4 ADD CALLDATALOAD PUSH2 0x1CEA DUP2 PUSH2 0x1CB0 JUMP JUMPDEST PUSH4 0x4E487B71 PUSH1 0xE0 SHL PUSH1 0x0 MSTORE PUSH1 0x41 PUSH1 0x4 MSTORE PUSH1 0x24 PUSH1 0x0 REVERT JUMPDEST PUSH1 0x0 DUP1 PUSH1 0x40 DUP4 DUP6 SUB SLT ISZERO PUSH2 0x1D4C JUMPI PUSH1 0x0 DUP1 REVERT JUMPDEST DUP3 CALLDATALOAD PUSH2 0x1D57 DUP2 PUSH2 0x1CB0 JUMP JUMPDEST SWAP2 POP PUSH1 0x20 DUP4 ADD CALLDATALOAD PUSH1 0x1 PUSH1 0x1 PUSH1 0x40 SHL SUB DUP2 GT ISZERO PUSH2 0x1D72 JUMPI PUSH1 0x0 DUP1 REVERT JUMPDEST DUP4 ADD PUSH1 0x1F DUP2 ADD DUP6 SGT PUSH2 0x1D83 JUMPI PUSH1 0x0 DUP1 REVERT JUMPDEST DUP1 CALLDATALOAD PUSH1 0x1 PUSH1 0x1 PUSH1 0x40 SHL SUB DUP2 GT ISZERO PUSH2 0x1D9C JUMPI PUSH2 0x1D9C PUSH2 0x1D23 JUMP JUMPDEST PUSH1 0x40 MLOAD PUSH1 0x1F DUP3 ADD PUSH1 0x1F NOT SWAP1 DUP2 AND PUSH1 0x3F ADD AND DUP2 ADD PUSH1 0x1 PUSH1 0x1 PUSH1 0x40 SHL SUB DUP2 GT DUP3 DUP3 LT OR ISZERO PUSH2 0x1DCA JUMPI PUSH2 0x1DCA PUSH2 0x1D23 JUMP JUMPDEST PUSH1 0x40 MSTORE DUP2 DUP2 MSTORE DUP3 DUP3 ADD PUSH1 0x20 ADD DUP8 LT ISZERO PUSH2 0x1DE2 JUMPI PUSH1 0x0 DUP1 REVERT JUMPDEST DUP2 PUSH1 0x20 DUP5 ADD PUSH1 0x20 DUP4 ADD CALLDATACOPY PUSH1 0x0 PUSH1 0x20 DUP4 DUP4 ADD ADD MSTORE DUP1 SWAP4 POP POP POP POP SWAP3 POP SWAP3 SWAP1 POP JUMP JUMPDEST PUSH1 0x0 DUP1 PUSH1 0x0 DUP1 PUSH1 0x80 DUP6 DUP8 SUB SLT ISZERO PUSH2 0x1E18 JUMPI PUSH1 0x0 DUP1 REVERT JUMPDEST POP POP DUP3 CALLDATALOAD SWAP5 PUSH1 0x20 DUP5 ADD CALLDATALOAD SWAP5 POP PUSH1 0x40 DUP5 ADD CALLDATALOAD SWAP4 PUSH1 0x60 ADD CALLDATALOAD SWAP3 POP SWAP1 POP JUMP JUMPDEST PUSH1 0x0 DUP1 PUSH1 0x0 DUP1 PUSH1 0x0 DUP1 PUSH1 0xA0 DUP8 DUP10 SUB SLT ISZERO PUSH2 0x1E4D JUMPI PUSH1 0x0 DUP1 REVERT JUMPDEST DUP7 CALLDATALOAD SWAP6 POP PUSH1 0x20 DUP8 ADD CALLDATALOAD SWAP5 POP PUSH1 0x40 DUP8 ADD CALLDATALOAD PUSH1 0x1 PUSH1 0x1 PUSH1 0x40 SHL SUB DUP2 GT ISZERO PUSH2 0x1E71 JUMPI PUSH1 0x0 DUP1 REVERT JUMPDEST DUP8 ADD PUSH1 0x1F DUP2 ADD DUP10 SGT PUSH2 0x1E82 JUMPI PUSH1 0x0 DUP1 REVERT JUMPDEST DUP1 CALLDATALOAD PUSH1 0x1 PUSH1 0x1 PUSH1 0x40 SHL SUB DUP2 GT ISZERO PUSH2 0x1E98 JUMPI PUSH1 0x0 DUP1 REVERT JUMPDEST DUP10 PUSH1 0x20 DUP3 DUP5 ADD ADD GT ISZERO PUSH2 0x1EAA JUMPI PUSH1 0x0 DUP1 REVERT JUMPDEST SWAP7 SWAP10 SWAP6 SWAP9 POP PUSH1 0x20 ADD SWAP7 PUSH1 0x60 DUP2 ADD CALLDATALOAD SWAP6 PUSH1 0x80 SWAP1 SWAP2 ADD CALLDATALOAD SWAP5 POP SWAP3 POP POP POP JUMP JUMPDEST PUSH1 0x0 DUP1 PUSH1 0x0 DUP1 PUSH1 0x0 PUSH1 0xA0 DUP7 DUP9 SUB SLT ISZERO PUSH2 0x1EDF JUMPI PUSH1 0x0 DUP1 REVERT JUMPDEST POP POP DUP4 CALLDATALOAD SWAP6 PUSH1 0x20 DUP6 ADD CALLDATALOAD SWAP6 POP PUSH1 0x40 DUP6 ADD CALLDATALOAD SWAP5 PUSH1 0x60 DUP2 ADD CALLDATALOAD SWAP5 POP PUSH1 0x80 ADD CALLDATALOAD SWAP3 POP SWAP1 POP JUMP JUMPDEST PUSH1 0x0 DUP2 MLOAD DUP1 DUP5 MSTORE PUSH1 0x0 JUMPDEST DUP2 DUP2 LT ISZERO PUSH2 0x1F28 JUMPI PUSH1 0x20 DUP2 DUP6 ADD DUP2 ADD MLOAD DUP7 DUP4 ADD DUP3 ADD MSTORE ADD PUSH2 0x1F0C JUMP JUMPDEST POP PUSH1 0x0 PUSH1 0x20 DUP3 DUP7 ADD ADD MSTORE PUSH1 0x20 PUSH1 0x1F NOT PUSH1 0x1F DUP4 ADD AND DUP6 ADD ADD SWAP2 POP POP SWAP3 SWAP2 POP POP JUMP JUMPDEST PUSH1 0x20 DUP2 MSTORE PUSH1 0x0 PUSH2 0x1C30 PUSH1 0x20 DUP4 ADD DUP5 PUSH2 0x1F02 JUMP JUMPDEST PUSH1 0x20 DUP2 MSTORE DUP2 MLOAD PUSH1 0x20 DUP3 ADD MSTORE PUSH1 0x0 PUSH1 0x20 DUP4 ADD MLOAD PUSH1 0xE0 PUSH1 0x40 DUP5 ADD MSTORE PUSH2 0x1F82 PUSH2 0x100 DUP5 ADD DUP3 PUSH2 0x1F02 JUMP JUMPDEST SWAP1 POP PUSH1 0x40 DUP5 ADD MLOAD PUSH1 0x60 DUP5 ADD MSTORE PUSH1 0x60 DUP5 ADD MLOAD PUSH1 0x80 DUP5 ADD MSTORE PUSH1 0x1 PUSH1 0x1 PUSH1 0x40 SHL SUB PUSH1 0x80 DUP6 ADD MLOAD AND PUSH1 0xA0 DUP5 ADD MSTORE PUSH1 0x1 PUSH1 0x1 PUSH1 0x40 SHL SUB PUSH1 0xA0 DUP6 ADD MLOAD AND PUSH1 0xC0 DUP5 ADD MSTORE PUSH1 0xC0 DUP5 ADD MLOAD ISZERO ISZERO PUSH1 0xE0 DUP5 ADD MSTORE DUP1 SWAP2 POP POP SWAP3 SWAP2 POP POP JUMP JUMPDEST DUP8 DUP2 MSTORE PUSH1 0xE0 PUSH1 0x20 DUP3 ADD MSTORE PUSH1 0x0 PUSH2 0x1FED PUSH1 0xE0 DUP4 ADD DUP10 PUSH2 0x1F02 JUMP JUMPDEST PUSH1 0x40 DUP4 ADD SWAP8 SWAP1 SWAP8 MSTORE POP PUSH1 0x60 DUP2 ADD SWAP5 SWAP1 SWAP5 MSTORE PUSH1 0x1 PUSH1 0x1 PUSH1 0x40 SHL SUB SWAP3 DUP4 AND PUSH1 0x80 DUP6 ADD MSTORE SWAP2 AND PUSH1 0xA0 DUP4 ADD MSTORE ISZERO ISZERO PUSH1 0xC0 SWAP1 SWAP2 ADD MSTORE SWAP3 SWAP2 POP POP JUMP JUMPDEST PUSH1 0x1 DUP2 DUP2 SHR SWAP1 DUP3 AND DUP1 PUSH2 0x2037 JUMPI PUSH1 0x7F DUP3 AND SWAP2 POP JUMPDEST PUSH1 0x20 DUP3 LT DUP2 SUB PUSH2 0x2057 JUMPI PUSH4 0x4E487B71 PUSH1 0xE0 SHL PUSH1 0x0 MSTORE PUSH1 0x22 PUSH1 0x4 MSTORE PUSH1 0x24 PUSH1 0x0 REVERT JUMPDEST POP SWAP2 SWAP1 POP JUMP JUMPDEST PUSH1 0x1F DUP3 GT ISZERO PUSH2 0x79F JUMPI DUP1 PUSH1 0x0 MSTORE PUSH1 0x20 PUSH1 0x0 KECCAK256 PUSH1 0x1F DUP5 ADD PUSH1 0x5 SHR DUP2 ADD PUSH1 0x20 DUP6 LT ISZERO PUSH2 0x2084 JUMPI POP DUP1 JUMPDEST PUSH1 0x1F DUP5 ADD PUSH1 0x5 SHR DUP3 ADD SWAP2 POP JUMPDEST DUP2 DUP2 LT ISZERO PUSH2 0x20A4 JUMPI PUSH1 0x0 DUP2 SSTORE PUSH1 0x1 ADD PUSH2 0x2090 JUMP JUMPDEST POP POP POP POP POP JUMP JUMPDEST DUP2 MLOAD PUSH1 0x1 PUSH1 0x1 PUSH1 0x40 SHL SUB DUP2 GT ISZERO PUSH2 0x20C4 JUMPI PUSH2 0x20C4 PUSH2 0x1D23 JUMP JUMPDEST PUSH2 0x20D8 DUP2 PUSH2 0x20D2 DUP5 SLOAD PUSH2 0x2023 JUMP JUMPDEST DUP5 PUSH2 0x205D JUMP JUMPDEST PUSH1 0x20 PUSH1 0x1F DUP3 GT PUSH1 0x1 DUP2 EQ PUSH2 0x210C JUMPI PUSH1 0x0 DUP4 ISZERO PUSH2 0x20F4 JUMPI POP DUP5 DUP3 ADD MLOAD JUMPDEST PUSH1 0x0 NOT PUSH1 0x3 DUP6 SWAP1 SHL SHR NOT AND PUSH1 0x1 DUP5 SWAP1 SHL OR DUP5 SSTORE PUSH2 0x20A4 JUMP JUMPDEST PUSH1 0x0 DUP5 DUP2 MSTORE PUSH1 0x20 DUP2 KECCAK256 PUSH1 0x1F NOT DUP6 AND SWAP2 JUMPDEST DUP3 DUP2 LT ISZERO PUSH2 0x213C JUMPI DUP8 DUP6 ADD MLOAD DUP3 SSTORE PUSH1 0x20 SWAP5 DUP6 ADD SWAP5 PUSH1 0x1 SWAP1 SWAP3 ADD SWAP2 ADD PUSH2 0x211C JUMP JUMPDEST POP DUP5 DUP3 LT ISZERO PUSH2 0x215A JUMPI DUP7 DUP5 ADD MLOAD PUSH1 0x0 NOT PUSH1 0x3 DUP8 SWAP1 SHL PUSH1 0xF8 AND SHR NOT AND DUP2 SSTORE JUMPDEST POP POP POP POP PUSH1 0x1 SWAP1 DUP2 SHL ADD SWAP1 SSTORE POP JUMP JUMPDEST DUP2 DUP4 DUP3 CALLDATACOPY PUSH1 0x0 SWAP2 ADD SWAP1 DUP2 MSTORE SWAP2 SWAP1 POP JUMP JUMPDEST PUSH1 0x0 PUSH1 0x20 DUP3 DUP5 SUB SLT ISZERO PUSH2 0x218B JUMPI PUSH1 0x0 DUP1 REVERT JUMPDEST POP MLOAD SWAP2 SWAP1 POP JUMP JUMPDEST PUSH1 0x0 PUSH1 0x20 DUP3 DUP5 SUB SLT ISZERO PUSH2 0x21A4 JUMPI PUSH1 0x0 DUP1 REVERT JUMPDEST DUP2 MLOAD PUSH2 0x1C30 DUP2 PUSH2 0x1CB0 JUMP JUMPDEST PUSH1 0x0 PUSH1 0x20 DUP3 DUP5 SUB SLT ISZERO PUSH2 0x21C1 JUMPI PUSH1 0x0 DUP1 REVERT JUMPDEST DUP2 MLOAD DUP1 ISZERO ISZERO DUP2 EQ PUSH2 0x1C30 JUMPI PUSH1 0x0 DUP1 REVERT INVALID CALLDATASIZE ADDMOD SWAP5 LOG1 EXTCODESIZE LOG1 LOG3 0x21 MOD PUSH8 0xC828492DB98DCA3E KECCAK256 PUSH23 0xCC3735A920A3CA505D382BBC65D7A28E3265B37A647492 SWAP16 CALLER PUSH6 0x21B332C1681B SWAP4 EXTCODEHASH PUSH13 0xB9F3376673440D862A02DD7BC7 0xDE 0xC4 0xDC 0xEE 0xDD 0xA7 PUSH22 0xE58DD541E08A116C6C53815C0BD028192F7B626800CD MCOPY 0xD1 TLOAD PUSH15 0x187E77E9AEE88184C21F4F2182AB58 0x27 0xCB EXTCODESIZE PUSH31 0x7FBEDCD63F03300A2646970667358221220F78E7C5C4508A746C596D40646 CALLCODE 0xAB JUMP 0x23 0xBF 0x28 0xE0 CALL 0x4D GASLIMIT CALLDATASIZE 0xF9 SWAP15 POP SWAP8 0xBE SWAP5 SLOAD 0xCE PUSH5 0x736F6C6343 STOP ADDMOD SHR STOP CALLER "},"methodIdentifiers":{"DEFAULT_ADMIN_ROLE()":"a217fddf","PAUSER_ROLE()":"e63ab1e9","UPGRADE_INTERFACE_VERSION()":"ad3cb1cc","acceptInvite(bytes32,bytes32,bytes32,bytes32)":"69a25c67","createGroup(bytes32,bytes32,string,bytes32,bytes32)":"76eb4325","getGroup(bytes32)":"b567d4ba","getMemberState(bytes32,bytes32)":"134e1897","getRoleAdmin(bytes32)":"248a9ca3","grantRole(bytes32,address)":"2f2ff15d","groups(bytes32)":"ef161bcb","hasRole(bytes32,address)":"91d14854","identity()":"2c159a1a","initialize(address,address)":"485cc955","inviteMember(bytes32,bytes32,bytes32,bytes32,bytes32)":"7824fb3b","invites(bytes32,bytes32)":"63858aa2","isFinalizedMember(bytes32,bytes32)":"5fdf065e","members(bytes32,bytes32)":"a57d2093","pause()":"8456cb59","paused()":"5c975abb","proxiableUUID()":"52d1902d","removeMember(bytes32,bytes32,bytes32,bytes32)":"e4ee18fe","renounceRole(bytes32,address)":"36568abe","revokeRole(bytes32,address)":"d547741f","supportsInterface(bytes4)":"01ffc9a7","unpause()":"3f4ba83a","upgradeToAndCall(address,bytes)":"4f1ef286"}},"storageLayout":{"storage":[{"astId":2220,"contract":"contracts/TelagentGroupRegistry.sol:TelagentGroupRegistry","label":"identity","offset":0,"slot":"0","type":"t_contract(IClawIdentity)3101"},{"astId":2225,"contract":"contracts/TelagentGroupRegistry.sol:TelagentGroupRegistry","label":"groups","offset":0,"slot":"1","type":"t_mapping(t_bytes32,t_struct(GroupRecord)2208_storage)"},{"astId":2232,"contract":"contracts/TelagentGroupRegistry.sol:TelagentGroupRegistry","label":"members","offset":0,"slot":"2","type":"t_mapping(t_bytes32,t_mapping(t_bytes32,t_enum(MembershipState)2193))"},{"astId":2239,"contract":"contracts/TelagentGroupRegistry.sol:TelagentGroupRegistry","label":"invites","offset":0,"slot":"3","type":"t_mapping(t_bytes32,t_mapping(t_bytes32,t_struct(InviteRecord)2217_storage))"}],"types":{"t_bool":{"encoding":"inplace","label":"bool","numberOfBytes":"1"},"t_bytes32":{"encoding":"inplace","label":"bytes32","numberOfBytes":"32"},"t_contract(IClawIdentity)3101":{"encoding":"inplace","label":"contract IClawIdentity","numberOfBytes":"20"},"t_enum(MembershipState)2193":{"encoding":"inplace","label":"enum TelagentGroupRegistry.MembershipState","numberOfBytes":"1"},"t_mapping(t_bytes32,t_enum(MembershipState)2193)":{"encoding":"mapping","key":"t_bytes32","label":"mapping(bytes32 => enum TelagentGroupRegistry.MembershipState)","numberOfBytes":"32","value":"t_enum(MembershipState)2193"},"t_mapping(t_bytes32,t_mapping(t_bytes32,t_enum(MembershipState)2193))":{"encoding":"mapping","key":"t_bytes32","label":"mapping(bytes32 => mapping(bytes32 => enum TelagentGroupRegistry.MembershipState))","numberOfBytes":"32","value":"t_mapping(t_bytes32,t_enum(MembershipState)2193)"},"t_mapping(t_bytes32,t_mapping(t_bytes32,t_struct(InviteRecord)2217_storage))":{"encoding":"mapping","key":"t_bytes32","label":"mapping(bytes32 => mapping(bytes32 => struct TelagentGroupRegistry.InviteRecord))","numberOfBytes":"32","value":"t_mapping(t_bytes32,t_struct(InviteRecord)2217_storage)"},"t_mapping(t_bytes32,t_struct(GroupRecord)2208_storage)":{"encoding":"mapping","key":"t_bytes32","label":"mapping(bytes32 => struct TelagentGroupRegistry.GroupRecord)","numberOfBytes":"32","value":"t_struct(GroupRecord)2208_storage"},"t_mapping(t_bytes32,t_struct(InviteRecord)2217_storage)":{"encoding":"mapping","key":"t_bytes32","label":"mapping(bytes32 => struct TelagentGroupRegistry.InviteRecord)","numberOfBytes":"32","value":"t_struct(InviteRecord)2217_storage"},"t_string_storage":{"encoding":"bytes","label":"string","numberOfBytes":"32"},"t_struct(GroupRecord)2208_storage":{"encoding":"inplace","label":"struct TelagentGroupRegistry.GroupRecord","members":[{"astId":2195,"contract":"contracts/TelagentGroupRegistry.sol:TelagentGroupRegistry","label":"creatorDidHash","offset":0,"slot":"0","type":"t_bytes32"},{"astId":2197,"contract":"contracts/TelagentGroupRegistry.sol:TelagentGroupRegistry","label":"groupDomain","offset":0,"slot":"1","type":"t_string_storage"},{"astId":2199,"contract":"contracts/TelagentGroupRegistry.sol:TelagentGroupRegistry","label":"domainProofHash","offset":0,"slot":"2","type":"t_bytes32"},{"astId":2201,"contract":"contracts/TelagentGroupRegistry.sol:TelagentGroupRegistry","label":"mlsStateHash","offset":0,"slot":"3","type":"t_bytes32"},{"astId":2203,"contract":"contracts/TelagentGroupRegistry.sol:TelagentGroupRegistry","label":"createdAt","offset":0,"slot":"4","type":"t_uint64"},{"astId":2205,"contract":"contracts/TelagentGroupRegistry.sol:TelagentGroupRegistry","label":"updatedAt","offset":8,"slot":"4","type":"t_uint64"},{"astId":2207,"contract":"contracts/TelagentGroupRegistry.sol:TelagentGroupRegistry","label":"active","offset":16,"slot":"4","type":"t_bool"}],"numberOfBytes":"160"},"t_struct(InviteRecord)2217_storage":{"encoding":"inplace","label":"struct TelagentGroupRegistry.InviteRecord","members":[{"astId":2210,"contract":"contracts/TelagentGroupRegistry.sol:TelagentGroupRegistry","label":"inviterDidHash","offset":0,"slot":"0","type":"t_bytes32"},{"astId":2212,"contract":"contracts/TelagentGroupRegistry.sol:TelagentGroupRegistry","label":"inviteeDidHash","offset":0,"slot":"1","type":"t_bytes32"},{"astId":2214,"contract":"contracts/TelagentGroupRegistry.sol:TelagentGroupRegistry","label":"exists","offset":0,"slot":"2","type":"t_bool"},{"astId":2216,"contract":"contracts/TelagentGroupRegistry.sol:TelagentGroupRegistry","label":"accepted","offset":1,"slot":"2","type":"t_bool"}],"numberOfBytes":"96"},"t_uint64":{"encoding":"inplace","label":"uint64","numberOfBytes":"8"}}}}}}