{"contracts/mocks/MockClawIdentity.sol":{"MockClawIdentity":{"abi":[{"inputs":[{"internalType":"bytes32","name":"","type":"bytes32"}],"name":"active","outputs":[{"internalType":"bool","name":"","type":"bool"}],"stateMutability":"view","type":"function"},{"inputs":[{"internalType":"bytes32","name":"","type":"bytes32"}],"name":"controller","outputs":[{"internalType":"address","name":"","type":"address"}],"stateMutability":"view","type":"function"},{"inputs":[{"internalType":"bytes32","name":"didHash","type":"bytes32"}],"name":"getController","outputs":[{"internalType":"address","name":"","type":"address"}],"stateMutability":"view","type":"function"},{"inputs":[{"internalType":"bytes32","name":"didHash","type":"bytes32"}],"name":"isActive","outputs":[{"internalType":"bool","name":"","type":"bool"}],"stateMutability":"view","type":"function"},{"inputs":[{"internalType":"bytes32","name":"didHash","type":"bytes32"},{"internalType":"address","name":"didController","type":"address"},{"internalType":"bool","name":"activeFlag","type":"bool"}],"name":"setDid","outputs":[],"stateMutability":"nonpayable","type":"function"}],"evm":{"bytecode":{"linkReferences":{},"object":"6080604052348015600f57600080fd5b506102198061001f6000396000f3fe608060405234801561001057600080fd5b50600436106100575760003560e01c80635c36901c1461005c5780638f1815b214610094578063dbd4e021146100d5578063e26e4cf9146100fe578063ef326f4914610121575b600080fd5b61007f61006a366004610177565b60009081526020819052604090205460ff1690565b60405190151581526020015b60405180910390f35b6100bd6100a2366004610177565b6000908152600160205260409020546001600160a01b031690565b6040516001600160a01b03909116815260200161008b565b6100bd6100e3366004610177565b6001602052600090815260409020546001600160a01b031681565b61007f61010c366004610177565b60006020819052908152604090205460ff1681565b61017561012f366004610190565b600092835260016020908152604080852080546001600160a01b0319166001600160a01b0395909516949094179093558390529120805460ff1916911515919091179055565b005b60006020828403121561018957600080fd5b5035919050565b6000806000606084860312156101a557600080fd5b8335925060208401356001600160a01b03811681146101c357600080fd5b9150604084013580151581146101d857600080fd5b80915050925092509256fea26469706673582212202cf692a42c0937f810db33ed745eff3ae2cc6562addef91e83e3321dc87b185364736f6c634300081c0033","opcodes":"PUSH1 0x80 PUSH1 0x40 MSTORE CALLVALUE DUP1 ISZERO PUSH1 0xF JUMPI PUSH1 0x0 DUP1 REVERT JUMPDEST POP PUSH2 0x219 DUP1 PUSH2 0x1F PUSH1 0x0 CODECOPY PUSH1 0x0 RETURN INVALID PUSH1 0x80 PUSH1 0x40 MSTORE CALLVALUE DUP1 ISZERO PUSH2 0x10 JUMPI PUSH1 0x0 DUP1 REVERT JUMPDEST POP PUSH1 0x4 CALLDATASIZE LT PUSH2 0x57 JUMPI PUSH1 0x0 CALLDATALOAD PUSH1 0xE0 SHR DUP1 PUSH4 0x5C36901C EQ PUSH2 0x5C JUMPI DUP1 PUSH4 0x8F1815B2 EQ PUSH2 0x94 JUMPI DUP1 PUSH4 0xDBD4E021 EQ PUSH2 0xD5 JUMPI DUP1 PUSH4 0xE26E4CF9 EQ PUSH2 0xFE JUMPI DUP1 PUSH4 0xEF326F49 EQ PUSH2 0x121 JUMPI JUMPDEST PUSH1 0x0 DUP1 REVERT JUMPDEST PUSH2 0x7F PUSH2 0x6A CALLDATASIZE PUSH1 0x4 PUSH2 0x177 JUMP JUMPDEST PUSH1 0x0 SWAP1 DUP2 MSTORE PUSH1 0x20 DUP2 SWAP1 MSTORE PUSH1 0x40 SWAP1 KECCAK256 SLOAD PUSH1 0xFF AND SWAP1 JUMP JUMPDEST PUSH1 0x40 MLOAD SWAP1 ISZERO ISZERO DUP2 MSTORE PUSH1 0x20 ADD JUMPDEST PUSH1 0x40 MLOAD DUP1 SWAP2 SUB SWAP1 RETURN JUMPDEST PUSH2 0xBD PUSH2 0xA2 CALLDATASIZE PUSH1 0x4 PUSH2 0x177 JUMP JUMPDEST PUSH1 0x0 SWAP1 DUP2 MSTORE PUSH1 0x1 PUSH1 0x20 MSTORE PUSH1 0x40 SWAP1 KECCAK256 SLOAD PUSH1 0x1 PUSH1 0x1 PUSH1 0xA0 SHL SUB AND SWAP1 JUMP JUMPDEST PUSH1 0x40 MLOAD PUSH1 0x1 PUSH1 0x1 PUSH1 0xA0 SHL SUB SWAP1 SWAP2 AND DUP2 MSTORE PUSH1 0x20 ADD PUSH2 0x8B JUMP JUMPDEST PUSH2 0xBD PUSH2 0xE3 CALLDATASIZE PUSH1 0x4 PUSH2 0x177 JUMP JUMPDEST PUSH1 0x1 PUSH1 0x20 MSTORE PUSH1 0x0 SWAP1 DUP2 MSTORE PUSH1 0x40 SWAP1 KECCAK256 SLOAD PUSH1 0x1 PUSH1 0x1 PUSH1 0xA0 SHL SUB AND DUP2 JUMP JUMPDEST PUSH2 0x7F PUSH2 0x10C CALLDATASIZE PUSH1 0x4 PUSH2 0x177 JUMP JUMPDEST PUSH1 0x0 PUSH1 0x20 DUP2 SWAP1 MSTORE SWAP1 DUP2 MSTORE PUSH1 0x40 SWAP1 KECCAK256 SLOAD PUSH1 0xFF AND DUP2 JUMP JUMPDEST PUSH2 0x175 PUSH2 0x12F CALLDATASIZE PUSH1 0x4 PUSH2 0x190 JUMP JUMPDEST PUSH1 0x0 SWAP3 DUP4 MSTORE PUSH1 0x1 PUSH1 0x20 SWAP1 DUP2 MSTORE PUSH1 0x40 DUP1 DUP6 KECCAK256 DUP1 SLOAD PUSH1 0x1 PUSH1 0x1 PUSH1 0xA0 SHL SUB NOT AND PUSH1 0x1 PUSH1 0x1 PUSH1 0xA0 SHL SUB SWAP6 SWAP1 SWAP6 AND SWAP5 SWAP1 SWAP5 OR SWAP1 SWAP4 SSTORE DUP4 SWAP1 MSTORE SWAP2 KECCAK256 DUP1 SLOAD PUSH1 0xFF NOT AND SWAP2 ISZERO ISZERO SWAP2 SWAP1 SWAP2 OR SWAP1 SSTORE JUMP JUMPDEST STOP JUMPDEST PUSH1 0x0 PUSH1 0x20 DUP3 DUP5 SUB SLT ISZERO PUSH2 0x189 JUMPI PUSH1 0x0 DUP1 REVERT JUMPDEST POP CALLDATALOAD SWAP2 SWAP1 POP JUMP JUMPDEST PUSH1 0x0 DUP1 PUSH1 0x0 PUSH1 0x60 DUP5 DUP7 SUB SLT ISZERO PUSH2 0x1A5 JUMPI PUSH1 0x0 DUP1 REVERT JUMPDEST DUP4 CALLDATALOAD SWAP3 POP PUSH1 0x20 DUP5 ADD CALLDATALOAD PUSH1 0x1 PUSH1 0x1 PUSH1 0xA0 SHL SUB DUP2 AND DUP2 EQ PUSH2 0x1C3 JUMPI PUSH1 0x0 DUP1 REVERT JUMPDEST SWAP2 POP PUSH1 0x40 DUP5 ADD CALLDATALOAD DUP1 ISZERO ISZERO DUP2 EQ PUSH2 0x1D8 JUMPI PUSH1 0x0 DUP1 REVERT JUMPDEST DUP1 SWAP2 POP POP SWAP3 POP SWAP3 POP SWAP3 JUMP INVALID LOG2 PUSH5 0x6970667358 0x22 SLT KECCAK256 0x2C 0xF6 SWAP3 LOG4 0x2C MULMOD CALLDATACOPY 0xF8 LT 0xDB CALLER 0xED PUSH21 0x5EFF3AE2CC6562ADDEF91E83E3321DC87B18536473 PUSH16 0x6C634300081C00330000000000000000 "},"methodIdentifiers":{"active(bytes32)":"e26e4cf9","controller(bytes32)":"dbd4e021","getController(bytes32)":"8f1815b2","isActive(bytes32)":"5c36901c","setDid(bytes32,address,bool)":"ef326f49"}},"storageLayout":{"storage":[{"astId":3107,"contract":"contracts/mocks/MockClawIdentity.sol:MockClawIdentity","label":"active","offset":0,"slot":"0","type":"t_mapping(t_bytes32,t_bool)"},{"astId":3111,"contract":"contracts/mocks/MockClawIdentity.sol:MockClawIdentity","label":"controller","offset":0,"slot":"1","type":"t_mapping(t_bytes32,t_address)"}],"types":{"t_address":{"encoding":"inplace","label":"address","numberOfBytes":"20"},"t_bool":{"encoding":"inplace","label":"bool","numberOfBytes":"1"},"t_bytes32":{"encoding":"inplace","label":"bytes32","numberOfBytes":"32"},"t_mapping(t_bytes32,t_address)":{"encoding":"mapping","key":"t_bytes32","label":"mapping(bytes32 => address)","numberOfBytes":"32","value":"t_address"},"t_mapping(t_bytes32,t_bool)":{"encoding":"mapping","key":"t_bytes32","label":"mapping(bytes32 => bool)","numberOfBytes":"32","value":"t_bool"}}}}}}